:020000040800F2
:100000006030002001010008A70C00089F0C0008C8
:10001000A30C0008690B0008A12E000800000000D6
:10002000000000000000000000000000592400084B
:100030006D0B0008000000006F0100084525000856
:100040001B0100081B0100081B0100081B01000820
:100050001B0100081B0100081B0100081B01000810
:100060001B0100081B0100081B0100081B01000800
:100070001B0100081B0100081B0100081B010008F0
:100080001B0100081B0100081B0100081B010008E0
:100090001B0100081B0100081B0100081B010008D0
:1000A0001B0100081B0100081B0100081B010008C0
:1000B0001B0100081B0100081B0100081B010008B0
:1000C0001B0100081B0100081B0100081B010008A0
:1000D0001B0100081B0100081B0100081B01000890
:1000E0001B0100081B0100081B010008DFF80CD0F1
:1000F00000F0F4FC00480047294C00086030002064
:100100000648804706480047FEE7FEE7FEE7FEE7B1
:10011000FEE7FEE7FEE7FEE7FEE7FEE76D250008E7
:10012000ED000008EFF3108072B6704780F310887E
:1001300070471F484FF0FF010170002080F30988CD
:100140001C48016881F308881B48012101701B4885
:100150004FF08051016062B6FEE718484FF08051C1
:100160000160704715484FF080510160704772B6CA
:10017000EFF3098028B1203880E8F00F10490968B2
:10018000086000B50F4880475DF804EB0E480F4942
:100190000A7802700A480E490A680260106890E8FE
:1001A000F00F203080F309884EF0040E62B67047DD
:1001B00022ED00E0300000205E00002004ED00E0B1
:1001C000640000207D170008530000205400002028
:1001D0006C000020F0B480EA0102D40F4200B2EBC0
:1001E000410F02D20246084611464A0042D0C30DD2
:1001F000DDB2C1F3C752AD1A202D35DAC1F31601B5
:1002000041F4000204B15242C5F1200602FA06F19F
:100210002A411044B3EBD05F23D0C4B1012DA0EB31
:10022000C35009DCF0BC4FF0004202EAC352DBB21B
:1002300000F5000000F02FBB400000F1807000EBE3
:10024000C350A0F1807040EAD170490009E049082C
:1002500041EAC071A0EBC35000F50000400800EB7C
:10026000C350F0BC00F00EBB6142012202EB410121
:10027000001BF6E7F0BC704781F00041AAE780F070
:100280000040A7E780EA010210B502F000434000F9
:1002900022D04A001FD0010E01EB1261C0F35600BC
:1002A000C2F3560240F4000042F40002A0FB022018
:1002B00000047F39140400D0401C50EA124001D4DD
:1002C0004000491EC2B20C0604EBD010401C40088E
:1002D000802A02D003E0002010BD20F00100002998
:1002E00000DA0020184310BD30B480EA010202F0A9
:1002F000004530F0004221F0004013D090B1C30D12
:10030000D40DC2F31601C0F31600E41A41F4000143
:1003100040F400027D34914201D3641C00E04900A6
:10032000002C02DA30BC002070474FF4000000239C
:10033000914201D3891A034340084FEA4101F7D1A2
:1003400051B1914202D14FF0004105E002D24FF08D
:10035000010101E06FF0010103EBC450284430BCFF
:1003600000F090BA2DE9FE4F804681EA0300C00FED
:100370000C46009021F0004123F00045B8EB02004C
:10038000A94105D24046214690461C460B460246EE
:1003900023F00040104347D0270DC7F30A00C3F3F2
:1003A0000A510290401A019040286BDAC3F31300FF
:1003B00040F4801B0098924620B10023D2EB030A40
:1003C00063EB0B0B01985946C0F14002504600F018
:1003D00028FA06460D4650465946019A00F040FA62
:1003E00010EB08006141002487EA115284EAE773A8
:1003F0001A4340D0009A62B3019A012A4FEA075289
:1004000015DC001B61EB02014FF0004202EA0752CB
:10041000CDE90042001C41F5801132462B4600F028
:1004200077FA03B0BDE8F08F40462146F9E7001B9C
:1004300061EB0201001C41F5801300185B4120189C
:10044000A2F5001747EB030140EAD570B6196D41DC
:1004500011E06D084FEA360645EAC0754FEA0752CB
:10046000001B61EB0201001C41F5801149084FEAB5
:1004700030000019514132462B4603B0BDE8F04F21
:1004800000F037BA0098012240000023D0EB0202AE
:1004900063EBE073009821464FEAE074B8EB00008C
:1004A00061EB0401E9E783F000435BE781F0004181
:1004B00058E72DE9FE4F81EA030404F0004421F0DF
:1004C000004100944FF0000B23F0004350EA010478
:1004D0005ED052EA03045BD0C3F30A54C1F30A5559
:1004E0002C44A4F2F3340194A0FB0254C1F3130191
:1004F00041F48011C3F3130343F4801301FB02445E
:1005000000FB034E840A970A44EA815447EA835762
:10051000A4FB076802958D0A05FB07854FEA932C1B
:1005200004FB0C542705029D4FEA065847EA16378C
:10053000B5EB08056EEB070C870E920E47EA8117A4
:1005400042EA8312A7FB0201B6EB0B0164EB000445
:100550002B0D43EA0C335E1844EB1C50DA4651462F
:10056000E7FB0201C5F313044FEA0B3343EA1453CC
:100570004FEA0432019C43EA0603A4F10C040294FE
:10058000009CCDE900B400F0C3F903B0BDE8F08FE2
:1005900000200146F9E72DE9F04D81EA030404F05B
:1005A000004B21F0004514464FF0000A23F00041B3
:1005B00050EA050220D054EA01021DD0C5F30A57C3
:1005C0000246C5F31303C1F31300C1F30A5640F406
:1005D000801543F48013A7EB0608101BD64608F2DB
:1005E000FD3873EB050002D308F1010801E0921811
:1005F0005B41B8F1000F03DA00200146BDE8F08D41
:1006000000204FF48011064684460EE0171B73EB62
:10061000050705D3121B63EB050306434CEA010CE7
:1006200049084FEA300092185B4150EA0107EDD1CA
:1006300052EA030012D082EA040083EA050108436B
:1006400005D0101BAB4106D20122002306E0002298
:100650004FF0004302E06FF0010253101AEB060066
:100660004CEB085110EB0A0041EB0B01BDE8F04DDB
:1006700000F03FB9C10F80EAE0700844CA07962332
:10068000002100F008B996230022114600F003B9BA
:100690000EB5C10F80EAE0700844CA07002140F29D
:1006A00033438DE80E000A460B4600F031F903B0E3
:1006B00000BD20F00040C10DC0F3160040F4000062
:1006C0007F2901DA00207047962903DCC1F19601E9
:1006D000C8407047963988407047C1F30A5210B538
:1006E000C1F3130140F2FF3341F480119A4201DA61
:1006F000002010BD40F233439A42A2F2334203DCA1
:10070000524200F09DF810BD904010BD00F0004234
:1007100030F000400AD0C10D01F56071C0F3160041
:1007200042EA0151C20840071143704700200146C8
:10073000704701F0004330B421F0004150EA01025B
:1007400006D00A0DA2F56072C1F31301002A02DC83
:1007500030BC00207047440F44EAC104C100E018D7
:1007600030BC00EBC25000F08DB80000002801DB67
:10077000C0F10040002901DBC1F100418142704716
:10078000002801DBC0F10040002901DBC1F100417C
:100790008842704730B50B460146002020220124D4
:1007A00009E021FA02F59D4205D303FA02F5491B3F
:1007B00004FA02F52844151EA2F10102F1DC30BD55
:1007C0002DE9F05F0546002092469B468846064686
:1007D000814640241BE0284641464746224600F019
:1007E0002FF853465A46C01A914110D31146184665
:1007F000224600F016F82D1A67EB01084F462246F4
:100800000120002100F00DF817EB00094E41201ED9
:10081000A4F10104DFDC484631462A464346BDE8E0
:10082000F09F202A04DB203A00FA02F100207047F2
:100830009140C2F1200320FA03F31943904070471E
:10084000202A04DB203A21FA02F00021704721FA25
:1008500002F3D040C2F1200291400843194670478C
:10086000202A06DBCB17203A41FA02F043EAE07374
:1008700006E041FA02F3D040C2F120029140084361
:10088000194670470029A8BF7047401C490008BF9F
:1008900020F00100704710B4B0FA80FC00FA0CF0B0
:1008A00050EA010404BF10BC704749B1CCF12004E8
:1008B00021FA04F411FA0CF118BF01212143084375
:1008C000A3EB0C01CB1D4FEA00614FEA102042BFA1
:1008D000002010BC704700EBC35010440029A4BF97
:1008E00010BC7047401C490008BF20F0010010BC3C
:1008F000704710B5141E73F1000408DA401C41F172
:10090000000192185B411A4301D120F0010010BD93
:100910002DE9F04D92469B4611B1B1FA81F202E009
:10092000B0FA80F220329046FFF77BFF04460F4674
:1009300040EA0A0041EA0B0153465A46084313D0E5
:10094000114653EA010019D0C8F140025046FFF7A2
:1009500077FF05460E46504659464246FFF761FF6F
:10096000084305D0012004E020463946BDE8F08D5B
:100970000020054346EAE0762C4337430A98630596
:10098000E40AA0EB08000022FD0A44EA47540A30BA
:1009900002D500200146E9E7010510196941DDE9AA
:1009A000084500196941BDE8F04DA2E770B521F096
:1009B000004303430CD0C1F30A550024D5EB0405D2
:1009C00064EB0403D617AD1AB34102DB00200146E5
:1009D00070BD201841EB025170BD2DE9F04D002390
:1009E0001A461B1A8A4103DB00200146BDE8F08D40
:1009F000C1F30A52C1F3130141F480154FF0000B0B
:100A0000D10702D100186D41521E0027044640F262
:100A1000FF11384601EB620A3E468046024600203E
:100A20004FF48011FFF70CFFC2197141BB1846EB60
:100A30000100B4EB030C75EB000C04D3E41A65EB76
:100A4000000517460E46241908F101006D41804645
:100A50003428E3DDF91946EB0600091BA84103D24F
:100A60004FF0FF32134601E0002213461BEB070054
:100A700046EB0A51BDE8F04DFFF73BBFC1F30A5208
:100A8000C1F3130140F2FF3341F480119A4202DABC
:100A900000200146704740F233439A42A2F23342AB
:100AA00002DC5242FFF7CCBEFFF7BBBE30B5041EDE
:100AB00071F1000404DB4FF00044404264EB01019B
:100AC000141E73F1000405DB1C464FF00043524234
:100AD00063EB0403994208BF904230BD064C074DBA
:100AE00006E0E06840F0010394E8070098471034FE
:100AF000AC42F6D3FFF7FEFA086000082860000851
:100B00000EB540F2334102910021CDE900110A46B1
:100B10000B46FFF7FDFE03B000BD70B5C1F30A52EE
:100B200001F000450024C1F3130140F2FF3341F40A
:100B300080119A4201DA002070BD40F233439A429C
:100B4000A2F2334203DC5242FFF77AFE00E090400B
:100B50002C43F1D0404270BD7047704770477047DA
:100B6000704770477047704700BFFEE770472DE938
:100B7000F041024600250026002000230024002723
:100B800091F803C00CF00F0591F803C00CF0100CA5
:100B9000BCF1000F03D091F802C04CEA050591F8B2
:100BA00000C0BCF1000F31D0146800202BE04FF0E2
:100BB000010C0CFA00F3B1F800C00CEA03069E42E7
:100BC00020D183004FF00F0C0CFA03F7BC4305FA59
:100BD00003FC4CEA040491F803C0BCF1280F06D1D1
:100BE0004FF0010C0CFA00FCC2F814C00AE091F8B6
:100BF00003C0BCF1480F05D14FF0010C0CFA00FC0A
:100C0000C2F810C0401C0828D1D31460B1F800C04D
:100C1000BCF1FF0F34DD546800202EE000F1080C19
:100C20004FF0010808FA0CF3B1F800C00CEA030613
:100C30009E4221D183004FF00F0C0CFA03F7BC4306
:100C400005FA03FC4CEA040491F803C0BCF1280F38
:100C500005D100F1080C08FA0CF8C2F8148091F8DC
:100C600003C0BCF1480F07D100F1080C4FF0010898
:100C700008FA0CF8C2F81080401C0828CED3546043
:100C8000BDE8F0810246002093680B400BB10120C3
:100C900000E000207047416170470161704700BF6C
:100CA000FEE700BFFEE770471D481E481E481F486C
:100CB0001F482048204821482148224822482348EC
:100CC00023482448244825482548264826482748BC
:100CD000274828482848294829482A482A482B488C
:100CE0002B482C482C482D482D482E482E482F485C
:100CF0002F4830483048314831483248324833482C
:100D000033483448344835483548364836483748FB
:100D10003748384838483948394800BF70470000DC
:100D2000705D0008745D00087A5D00087C5D000855
:100D3000785D00087E5D0008805D0008825D000827
:100D4000845D0008865D0008885D00088A5D0008F3
:100D50008C5D00088E5D0008905D0008925D0008C3
:100D6000945D0008965D0008985D00089A5D000893
:100D70009C5D00089E5D0008A05D0008A25D000863
:100D8000A45D0008A65D0008A85D0008AA5D000833
:100D9000AC5D0008AE5D0008B05D0008B25D000803
:100DA000B45D0008B65D0008B85D0008BA5D0008D3
:100DB000BC5D0008BE5D0008C05D0008C25D0008A3
:100DC000C45D0008C65D0008C85D0008CA5D000873
:100DD0009C2700201C2C0020CE5D0008D05D000860
:100DE000D25D0008D45D0008D65D0008D85D00081B
:100DF000DA5D0008DC5D0008DE5D0008CC5D0008FF
:100E0000E05D00082DE9F04105460E461446002736
:100E10001148007818B112202070BDE8F0812878C0
:100E2000012808D0022807D0032802D0042804D1C2
:100E300000E000BF00BF00BF02E001202070ECE72F
:100E400000BFFFF76FF907466E613846FFF76EF98E
:100E50000020207000BFE0E75100002010B500F036
:100E600019F800F0C1FF00F0EDFF01F00DF800F0FF
:100E70008BFF00F04BFF01F07FF801F0A9F801F0C3
:100E80003DF801F055F800F04DFD00F01BF8FFF7BC
:100E90000BFF10BD0748802102E0491E002204C05C
:100EA0000029FAD1044A054B1A600022044B1A802B
:100EB00070470000DC080020D80A00203000002025
:100EC000340000207047000010B500241A48007854
:100ED000012830D1FFF726F904461848007820B1E0
:100EE00016480078401E1549087014480078F8B973
:100EF00013480078E0B901F0CDF81248124909789A
:100F000050F82100114908600F480078104909780D
:100F100088420DD00D480068C06A401C0B49096822
:100F2000C8620C480068401C0A490860FFF71AF9BB
:100F30002046FFF7FBF810BD5E00002051000020A6
:100F400052000020941F0020540000206C0000205C
:100F5000530000203800002070B5054600261048D8
:100F6000007808B1002070BDFFF7DCF806460D4898
:100F70000468006820B10B480068406809490860AF
:100F80003046FFF7D3F84CB10120207000202081BB
:100F9000656005A06061204600F0AAFE2046E2E7F9
:100FA000510000203C0000203F0000002DE9F041EE
:100FB00005460F4614464FF000082878012804D053
:100FC000012020700020BDE8F0813748007818B17A
:100FD000022020700020F6E73448007818B10D2078
:100FE00020700020EFE7FFF79DF880466E6846B15D
:100FF000002068604046FFF799F8002020703046D6
:10100000E1E72B48006890F8240040F002002849EE
:10101000096881F8240000202549096881F8250025
:10102000234800680762284600F024FE4046FFF788
:101030007DF800F0F5FFFFF775F880461C48006862
:1010400090F8250020B101280DD002280AD105E032
:10105000174800684669002020700DE000260E2029
:10106000207009E000BF29461148006800F0D0FD5B
:1010700000260A20207000BF00BF00200C4909682C
:1010800081F824000A49096881F82500084909689F
:10109000C860074909680861054909684861404610
:1010A000FFF744F830468EE7510000205200002040
:1010B0006400002070B504460D4600262078012803
:1010C00001D0012070BDFFF72DF80646A07A60B16F
:1010D000002302222946204600F052FD3046FFF749
:1010E00025F800F09DFF0020ECE7606820B1304655
:1010F000FFF71CF81420E5E765603046FFF716F8A7
:101100000020DFE710B500240B480078012811D13A
:10111000FFF708F804460948007840B90848007805
:10112000FF2804D206480078401C05490870204674
:10113000FEF7FCFF10BD00005E0000205100002003
:101140005200002010B5002413480078012821D156
:10115000FEF7E8FF044611480078C0B9104800784F
:1011600088B10F480078401E0D4908700846007885
:1011700028B92046FEF7DAFF00F052FF0AE02046C9
:10118000FEF7D4FF06E02046FEF7D0FF02E020463F
:10119000FEF7CCFF10BD00005E00002051000020D3
:1011A0005200002070B5054600261048007808B1AE
:1011B000002070BDFEF7B6FF06460D4804680068C3
:1011C00020B10B4800684068094908603046FEF7C6
:1011D000ADFF4CB10320207025810020606005A088
:1011E0006061204600F084FD2046E2E751000020C7
:1011F0003C0000203F0000002DE9F04105460E466E
:10120000144600272878032803D001202070BDE869
:10121000F0813248007810B102202070F7E73048A2
:10122000007810B10D202070F1E7FEF77BFF074634
:10123000288940B12889401E28813846FEF776FF6C
:1012400000202070E3E72748006890F8240040F071
:1012500001002449096881F8240000202149096817
:1012600081F825001F4800680662284600F002FD4C
:101270003846FEF75BFF00F0D3FEFEF753FF07464C
:101280001848006890F8250020B1012809D00228EC
:1012900006D102E0002020700BE00E20207008E054
:1012A00000BF29460F48006800F0B2FC0A202070F9
:1012B00000BF00BF00200B49096881F824000949DC
:1012C000096881F8250007490968C8600549096867
:1012D00008613846FEF72AFF00BF98E7510000205A
:1012E000520000206400002070B5044600252078DC
:1012F000032801D0012070BDFEF714FF0546A07A37
:1013000060B1002301221946204600F039FC28462E
:10131000FEF70CFF00F084FE0020ECE720894FF67A
:10132000FF71884207D22089401C20812846FEF7A1
:10133000FDFE0020DFE72846FEF7F8FE3320DAE75F
:1013400010B50B48007890B900F0A4FE0948007869
:101350000949087009480749097850F821000849E7
:1013600008600846006807490860FEF7E2FE10BD05
:101370005E0000205400002053000020941F002035
:101380006C0000206400002010B504462046FFF7E2
:10139000E3FB10BD2DE9FE4F06460F4690461C4666
:1013A0004FF00009FEF7BEFE81461F48007828B1C5
:1013B0004846FEF7BBFE3C20BDE8FE8F1B4850F8B8
:1013C000240060BB0120194941F824004846FEF77B
:1013D000ADFE002342463946304600F02DF98246E4
:1013E000002000900190034602465146029020469C
:1013F00000F066FE054635B90D48007801280CD18D
:1014000000F00EFE09E0FEF78DFE81460020074940
:1014100041F824004846FEF789FE2846CCE74846B6
:10142000FEF784FE2820C7E751000020941F00200B
:101430005E00002010B504462046FFF78EFB10BD6D
:101440002DE9F041054600274A48007810B14020B8
:10145000BDE8F0813F2D01D13E20F9E7FEF762FEA5
:101460000746FF2D03D14448006890F826504348B2
:1014700050F8254024B93846FEF758FE4320E7E7E8
:10148000012C04D13846FEF751FE3D20E0E714F868
:10149000280F3B49085C617888432178384A5054CA
:1014A00014F828091146085C30B994F82A10354818
:1014B0000078884333490870E06818B12046E16835
:1014C00000F0A6FB206918B12046216900F0B5FBA9
:1014D000A66916B1304600F045FC0020206284F871
:1014E000240084F8250028480078FF2804D22648E4
:1014F0000078401C244908703846FEF717FE00F0BB
:101500003DFBFEF70FFE07461F48007820B11E483E
:101510000078401E1C490870204600F041F81B4826
:101520000078401E194908700020144941F8250030
:10153000A06830B90020616888601549606808605B
:1015400005E0D4E901014860D4E901108860114840
:10155000006860600F4804600FA020643846FEF702
:10156000E5FD0E480078012801D100F059FD00206A
:101570006EE700005100002064000020941F00204E
:101580005600002055000020520000205F0000207F
:1015900070000020680000203F0000005E00002076
:1015A00010B504462046FFF7D9FA10BD10B5FFF775
:1015B000D6FA10BD2DE9F04106460F4614464FF00D
:1015C00000081548007818B112202070BDE8F0819D
:1015D000FEF7A8FD8046FF2E03D11048006890F862
:1015E00026600F4850F826502DB94046FEF79EFD64
:1015F00043202070EAE7012D05D14046FEF796FD15
:1016000043202070E2E72F644046FEF78FFD002064
:10161000207000BFDAE700005100002064000020C5
:10162000941F002010B504462046FFF799FA10BD1C
:1016300010B5FFF796FA10BD70B5044610464FF08E
:1016400080750560051F28462C60214E051F284621
:101650002E604FF01236051F28462E604FF00336DD
:10166000051F28462E604FF00236051F28462E60C3
:101670007610051F28462E60051F284629604FF06A
:101680001136051F28462E604FF01036051F2846DC
:101690002E604FF00936051F28462E604FF00836A1
:1016A000051F28462E604FF00736051F28462E607E
:1016B0004FF00636051F28462E604FF00536051FF1
:1016C00028462E604FF00436051F28462E6070BD58
:1016D000212200082DE9F04105464FF00008FEF7F1
:1016E00021FD8046FF2D05D12048006890F8265046
:1016F000012608E01D48006890F82600A84201D1A4
:10170000012600E000261A4850F825402CB9404632
:10171000FEF70CFD4820BDE8F081012C04D14046C5
:10172000FEF704FD4320F6E794F828701148C05DE9
:1017300094F8291088430F49C8550846C05D30B950
:1017400094F82A100C48007888430B49087094F8E4
:10175000240040F0080084F824004046FEF7E6FC30
:10176000012E01D100F05CFC0020D4E764000020D1
:10177000941F0020560000205500002010B5FFF7F0
:10178000F1F910BD70B5054600261748007800B184
:1017900070BD1648007800B1FAE71DB3FEF7C2FC31
:1017A00006461348006890F828401248005D10492A
:1017B000096891F8291088430E4908550846005DCC
:1017C00040B90B48006890F82A100B48007888430D
:1017D000094908700648006805623046FEF7A6FC15
:1017E00000F01EFC00BFD3E7510000205200002093
:1017F00064000020560000205500002070B500262F
:1018000000F072F8FEF78EFC064631480068401C76
:101810002F4908603046FEF789FC2E4800780128E1
:1018200053D12D48007820B1012804D0022809D1D5
:1018300003E001250BE0002509E0012501202649F0
:10184000087004E0012500202349087000BF00BF94
:1018500005B970BD2148046833E0FEF763FC064615
:10186000206A50B3206A401E2062206A28BB94F888
:10187000240000F0370040B114F8240F00F0C80035
:10188000207001206070243C02E0002084F82500D4
:1018900094F8240000F0080078B92834A0781049A2
:1018A000097808430E49087020780E49085C617871
:1018B000084314F828190B4A505464683046FEF760
:1018C00035FC94F826003F28C7D100BFC1E70000CF
:1018D000840000205E0000207400002070000020C2
:1018E000550000205600002010B5FFF73CF90748CE
:1018F0000088401C0549088008460088642803DBEE
:101900000020088000F004F810BD00003400002022
:1019100010B503480068FFF7E7FC0446204610BDF9
:1019200094000020F8B54FF42071284800F01AFB0D
:101930004021274800F016FB002514E0681C86B201
:1019400005EB8500214901EBC00406EB860001EBA5
:10195000C00764202070002084F82500E7601DA0E7
:101960002062681C85B20F2DE8D305EB850017496E
:1019700001EBC00464202070002084F82500E060A2
:1019800014A0206200201449086014490880102027
:10199000134908800D48134908600120FFF702FC35
:1019A000114908600020FFF7FDFB104908606A46F6
:1019B0000FA10D480068FFF725FA6A4611A10B48F0
:1019C0000068FFF71FFA00F027F8F8BD9C270020F9
:1019D0001C2C00203F0000008C0000208A0000200A
:1019E0008800002098000020900000209400002033
:1019F00075432F4F532D494920546D724C6F636BC3
:101A00000000000075432F4F532D494920546D723B
:101A10005369676E616C000008B53D23054A0021DB
:101A20000548FFF7B7FC6A4604A13D20FFF7C2FD59
:101A300008BD0000182C0020B91A000875432F4F6C
:101A4000532D494920546D720000000070B50B46BB
:101A5000032580F82550012B05D1154EC569366840
:101A6000354445610CE085692DB9114EC56936686C
:101A70003544456104E00E4E85693668354445615C
:101A8000057D05F007040B4D05EBC4010D682DB96C
:101A900008600025C56001258D8006E00A680860A1
:101AA000C26010618D886D1C8D800025056170BD40
:101AB0008C0000201C2C002008B500BF00BF6A4627
:101AC00000211A480068FFF797FBFFF71BFB184837
:101AD0000068401C164908600846007800F00708B6
:101AE000144800EBC8073C681AE0E66810496069D2
:101AF0000968884213D1204600F01EF894F82400AB
:101B0000022804D101212046FFF7A0FF02E00220B5
:101B100084F82500656815B12046A168A8473446B9
:101B2000002CE2D1FFF70EFBC9E700009400002073
:101B30008C0000201C2C002030B5057D05F007042A
:101B40000D4D05EBC4031D68854205D1C1681960C0
:101B500039B100250D6104E00169C268CA6002B1B3
:101B60001161012580F825500025C56005619D881B
:101B70006D1E9D8030BD00001C2C002070470000B1
:101B80002DE9F04F05460F4690469946A87A1C4924
:101B90000E5C05F10B00805D11F800B00BEBC60088
:101BA00000F0FF0A174850F82A4000201434E06083
:101BB0002760207C20EA0800207484F81190207CA3
:101BC000143C00F0080068B994F82A000E4909781E
:101BD00008430D4908700D48805D94F829100843AA
:101BE0000A4988552946204600F012F8206920B19C
:101BF0002046216900F021F8E5605046BDE8F08FED
:101C0000E25D0008941F00205500002056000020CF
:101C100010B590F8282001F10B039B5C90F8294047
:101C2000A34301F10B04A35423469B5C23B98B7A95
:101C300090F82A40A3438B7210BDF0B5024612F80B
:101C4000284F95785678283A0B4618680FE000F12F
:101C50000B073F5DB74300F10B0C0CF804706746AF
:101C60003F5D17B9877AAF4387721B1D186800283C
:101C7000EDD1F0BD10B51B4A1268D060194A126848
:101C800092F8283000F10B02D25C164B1B6893F8D7
:101C900029301A43134B1B6893F8284000F10B03BB
:101CA0001A55827A0F4B1B6893F82A301A438272B6
:101CB0000C4A126892F828100B4A525C094B1B68B8
:101CC00093F829309A43084B5A541A46525C42B949
:101CD000044A126892F82A30044A12789A43034B55
:101CE0001A7010BD6400002056000020550000202E
:101CF000014600228A72002005E0002301F10B0258
:101D00001354421CD0B20828F7D370472DE9F04194
:101D10005021114800F026F900250DE0681C86B21C
:101D20000D4800EB051400EB0617002020706760DB
:101D30000AA0E060681C85B2042DEFD3064800EBD2
:101D4000051400202070606004A0E060024804498F
:101D50000860BDE8F0810000441B00203F00000047
:101D60004000002030B501464A6808682AB9CC68AE
:101D7000606028B10025456002E0106000B142605B
:101D80008B6800259D6130BD70B541F26801134834
:101D900000F0E8F8002411E0601C85B204EB440078
:101DA0000E4901EBC00305EB450001EBC006002026
:101DB00018705E600AA05861601C84B2AE2CEBD330
:101DC00004EB4400054901EBC00300201870586083
:101DD00003A0586108460349086070BDDC0A002072
:101DE0003F0000003C00002000200B4908600B4928
:101DF00008700B4908700B4908700B4908700B49B3
:101E000008600B4908600B4908600B4908600B49E2
:101E100008700B49087070478400002051000020B2
:101E2000520000205F0000205E00002038000020EB
:101E3000600000204C0000204800002050000020DE
:101E40008000002000210A4A1170002004E00021D7
:101E5000084A1154411CC8B20828F8D30021064A88
:101E60001170064A1170064A1160064A11607047E7
:101E70005500002056000020530000205400002090
:101E80006C0000206400002070B54FF4C661164855
:101E900000F068F84FF48071144800F063F80023F4
:101EA0000FE0581CC5B203EBC3000F4901EBC0049F
:101EB00005EBC50001EBC00666600DA02064581C50
:101EC000C3B2152BEDD303EBC300074901EBC004EC
:101ED0000020606006A020640020064908600248D7
:101EE0000549086070BD000094200020941F002068
:101EF0003F000000700000206800002008B53F236C
:101F0000054A00210548FFF745FA6A4604A13F202B
:101F1000FFF750FB08BD0000901F0020F9210008CA
:101F200075432F4F532D49492049646C65000000CB
:101F300008B53E23054A00210548FFF72BFA6A46FB
:101F400004A13E20FFF736FB08BD0000901D0020D5
:101F50003922000875432F4F532D4949205374618E
:101F60007400000004E0002200F8012B4A1E91B228
:101F70000029F8D17047000070B578211148FFF7AB
:101F8000F1FF00240EE004EB44000E4901EBC00514
:101F9000601C00EB400001EBC00068600AA06861B3
:101FA000601C84B2042CEED304EB4400054901EB21
:101FB000C0050020686004A0686108460349086005
:101FC00070BD0000C42600203F0000007800002003
:101FD0002DE9F04160211048FFF7C4FF00240DE017
:101FE000601C86B204EB44000B4901EBC00506EB14
:101FF000460001EBC0072F60601C84B2032CEFD3B6
:1020000004EB4400044901EBC005002028600846A9
:1020100002490860BDE8F0813C2700207C000020D8
:1020200010B50024FEF77EF8044613480078F8B98E
:1020300012480078E0B900F02DF8114811490978EC
:1020400050F82100104908600E4800780F490978BF
:1020500088420DD00C480068C06A401C0A490968D3
:10206000C8620B480068401C09490860FEF775F813
:102070002046FEF75BF810BD510000205200002002
:10208000941F0020540000206C000020530000200A
:10209000380000200649074A1278885C0649095C26
:1020A000034A515C01EBC001044A11707047000003
:1020B000E25D00085500002056000020540000207A
:1020C0002DE9F84F05460F4690469946DDE90AABE3
:1020D00000200090FEF726F8009040480468002C8D
:1020E00076D00C3454F8080C3C4908600098FEF790
:1020F0001DF844F80C7CA57600202076607660619F
:1021000000BF00BF00BF0C980C9000BF0020E0771C
:10211000E810207705F00700E076217F0120884055
:10212000A077E17E01208840607700202060606019
:10213000E060A0602062A0626062E062206328A08C
:1021400060630C3C002606E0002104F1440040F8E6
:102150002610701CC6B2012EF6DB2046FFF714F9DC
:10216000FDF7E0FF00901F4840F825400098FDF77C
:10217000DDFF2046FFF75EF9FDF7D4FF00901A4817
:10218000006860600020A0601748006810B1164821
:1021900000688460144804602834A07813490978E2
:1021A00008431249087020781149085C6178084397
:1021B00014F828190E4A50540E480078401C0D4956
:1021C00008700098FDF7B2FF0020BDE8F88FFFE728
:1021D0000098FDF7ABFF4220F7E700006800002001
:1021E0003F000000941F00207000002055000020D8
:1021F000560000205F000020002400BF00BFFDF754
:1022000091FF044605480068401C044908602046C8
:10221000FDF78CFFFFF7CAF9F1E70000600000202E
:1022200010B504480068FFF7FDF9FF20FFF708F933
:1022300010BD00006400002000BF00BF02E0C82005
:10224000FFF7A0FA1E4800780028F8D01D48006863
:102250006421B0FBF1F01B4908600846006828B90A
:10226000002019490870FF20FFF734FAFDF75AFFE4
:102270000446144800686421484314490860204615
:10228000FDF754FF00BFFDF74DFF04460F480068FF
:102290000F49086000200D4908602046FDF746FF01
:1022A0000B48006807490968B0FBF1F0C0F1640011
:1022B00005490870FFF7BCF96420FFF763FAE2E70D
:1022C0005000002048000020440000206000002052
:1022D0004C00002029B1064AD2690243044BDA615E
:1022E00004E0034AD2698243014BDA61704700007F
:1022F0000010024029B1064A92690243044B9A61D8
:1023000004E0034A92698243014B9A6170470000DE
:102310000010024030B500210022002400232D4D82
:102320006D6805F00C0121B1042905D0082923D1DD
:1023300005E0294D056022E0274D05601FE0254D91
:102340006D6805F47012234D6D6805F48034022524
:1023500005EB92421CB9214D554305600BE01D4D24
:102360006D6805F400351DB11C4D5543056002E054
:10237000194D5543056002E0174D056000BF00BFD1
:10238000144D6D6805F0F0010909154D6B5C056889
:10239000DD4045600F4D6D6805F4E061090A104DA0
:1023A0006B5C4568DD4085600A4D6D6805F46051E1
:1023B000C90A0B4D6B5C4568DD40C560054D6D6815
:1023C00005F44041890B074D6B5CC568B5FBF3F51F
:1023D000056130BD0010024000127A0000093D0086
:1023E000000000201000002021B1028842F04002CD
:1023F000028004E002884FF6BF731A4002807047E3
:102400000246002013890B400BB1012000E00020A0
:1024100070470146888970478181704710B5002256
:10242000028802F441520B884C8823438C88234352
:10243000CC8823430C8923434C8923438C89234331
:10244000CC8923431A430280838B4FF2FF742340CD
:1024500083830B8A038210BD704710B500F002F829
:1024600010BD00000CB500200190009033480068BA
:1024700040F480303149086000BF3048006800F403
:10248000003000900198401C0190009818B9019804
:10249000B0F5A06FF1D12948006800F4003010B108
:1024A0000120009001E0002000900098012843D115
:1024B0002348006840F01000214908600846006881
:1024C00020F0030008600846006840F00200086041
:1024D0001A484068194948600846406848600846FC
:1024E000406840F4806048600846406820F47C10F2
:1024F00048600846406840F4E810486008460068B4
:1025000040F08070086000BF0C48006800F0007068
:102510000028F9D00948406820F0030007494860C6
:102520000846406840F00200486000BF0348406829
:1025300000F00C000828F9D10CBD0000001002408A
:102540000020024010B5FDF7EDFD04460648007876
:10255000401C054908702046FDF7E8FDFFF74EF9DD
:10256000FEF7B2FC10BD00005100002010B513486A
:10257000006840F0010011490860084640681049B1
:1025800008400E494860084600680E4908400B495B
:1025900008600846006820F480200860084640680B
:1025A00020F4FE0048604FF41F008860FFF755FFDD
:1025B0004FF000600449086010BD000000100240A8
:1025C0000000FFF8FFFFF6FE08ED00E021B10288F1
:1025D00042F00102028004E002884FF6FE731A40C6
:1025E0000280704770B5002400220023058C4FF64E
:1025F000FE7635400584028C8388048B4FF68F75F8
:102600002C40B51E2C400D882C43751E2A400D8988
:102610002A434D882A43144DA8420BD0134DA8429B
:1026200008D0134DA84205D0124DA84202D0124D39
:10263000A84213D14FF6F7752A404D892A434FF629
:10264000FB752A408D882A434FF6FF652B404FF6D5
:10265000FF552B408D892B43CD892B4383800483E9
:10266000CD888586028470BD002C01400034014075
:102670000040014000440140004801400A4600215A
:10268000018B4FF6F7731940114301837047000027
:1026900070B5002400220023058C4FF6EF763540FC
:1026A0000584028C8388048B48F6FF752C404FF616
:1026B000FF452C400D884FF6FF7606EA05252C4392
:1026C0004FF6DF752A400D8906EA05152A434D8825
:1026D00006EA05152A43154DA84202D0144DA8421A
:1026E0001DD14FF67F752A404D894FF6FF7606EAD9
:1026F00005152A434FF6BF752A408D8806EA051551
:102700002A434FF6FF352B404FF2FF752B408D8942
:1027100006EA85052B43CD8906EA85052B43838090
:102720000483CD880587028470BD0000002C014021
:10273000003401400A460021018B4FF2FF7319401B
:102740004FF6FF7303EA0223194301837047000029
:1027500070B5002400220023058C4FF6FF6635403B
:102760000584028C8388848B4FF68F752C404FF63E
:10277000FC752C400D882C434FF6FF552A400D89DF
:102780004FF6FF7606EA05252A434D8806EA052519
:102790002A43154DA84202D0144DA8421DD14FF234
:1027A000FF752A404D894FF6FF7606EA05252A4334
:1027B0004FF6FF352A408D8806EA05252A434EF656
:1027C000FF752B404DF6FF752B408D8906EA0515E8
:1027D0002B43CD8906EA05152B4383808483CD885E
:1027E0008587028470BD0000002C01400034014048
:1027F0000A460021818B4FF6F773194011438183FC
:102800007047000070B5002200230024058C4EF6AE
:10281000FF7635400584038C8488828B48F6FF75EB
:102820002A404FF6FF452A400D884FF6FF7606EA0C
:1028300005252A434DF6FF752B400D8906EA05351F
:102840002B434D8806EA05352B430B4DA84202D099
:102850000A4DA84208D14BF6FF752C408D894FF6E2
:10286000FF7606EA85152C4384808283CD88A0F804
:102870004050038470BD0000002C01400034014032
:102880000A460021818B4FF2FF7319404FF6FF7308
:1028900003EA0223194381837047818670470187C9
:1028A000704781877047A0F8401070470022028867
:1028B0001D4B98420ED01D4B98420BD0B0F1804F6B
:1028C00008D01B4B984205D01A4B984202D01A4BA5
:1028D000984204D14FF68F731A404B881A43174B16
:1028E000984207D0164B984204D04FF6FF431A4047
:1028F000CB881A4302808B8883850B8803850A4B1B
:1029000098420BD0094B984208D00E4B984205D004
:102910000D4B984202D00D4B984201D10B7A0386A1
:102920000123838270470000002C014000340140E5
:102930000004004000080040000C0040001000406F
:1029400000140040004001400044014000480140A4
:102950008CB04C480B90DFF830814C480A904C48C2
:10296000099000BF0020FEF7F7FA4A49086000BF4F
:1029700087E014214748019A0068FEF717FB0546D7
:1029800002A905F1180002F0CFFF002462E055F81B
:10299000240080F0004B404850F824105846FDF7C2
:1029A00019FC82464146FDF76DFC814655F824101E
:1029B00002AA52F82400FDF75FFC834640460A99BC
:1029C000FDF792FC59460090FDF75CFC82460999A0
:1029D000FDF758FC074639464846FDF7FBFB8246A3
:1029E0002E4850F824105046FDF7F4FB06A941F894
:1029F000240005F10C0252F8241006AA52F8240013
:102A0000FDF73AFC089008990B98FDF73BFC46F857
:102A1000240055F82400204941F8240056F82400E9
:102A20001F49FDF7ADFE03D21D4846F824000FE014
:102A300056F824001B49FDF799FE03D2194846F8C1
:102A4000240005E006A850F82400144941F82400A9
:102A5000601CC4B2022C9ADB69690498FDF70CFC77
:102A6000089008990B98FDF70DFCB0600598F06090
:102A700005F1180001F010FD31460B480068FEF723
:102A800019FB76E70000A041713D624129CB103E61
:102A90000AD7A33CC4000020A0000020A80000200A
:102AA00000401C4600401CC69C00002096B0DFF889
:102AB00028B10024494806900020FEF74DFA484905
:102AC000086000BF86E014214548059A0068FEF7BB
:102AD0006DFA8146484602F005FF13E009F1140142
:102AE00051F824000699FDF7CDFB13A941F8240005
:102AF00009F1140050F824100AF10C0040F82410D9
:102B0000601CC4B2032CE9DB0AA913A801F0E8FA9F
:102B100007AA34490AA802F0B7F809F1080002F040
:102B200043FC00241CE059464FF07E50FDF752FB59
:102B3000064607A850F824105846FDF7A3FB0746A1
:102B400009F1080050F824103846FDF743FB05460C
:102B50003146FDF7C9FB234941F82400601CC4B28B
:102B6000032CE0DB1F4A91689068FDF78BFB1D4A40
:102B7000029011681068FDF785FB01900299FDF73E
:102B800029FB0390FDF7C2FD074603F073F80546E5
:102B9000FDF7CFFD134904904868049901F032F91C
:102BA000CAF800000F4A9168106801F02BF9CAF8C2
:102BB0000400002407E039F814100AF1180020F886
:102BC0001410601CC4B2042CF5DB514606480068A2
:102BD000FEF770FA77E70000CDCC4C3E0AD7A33E53
:102BE000C0000020C8000020C400002000BF00205A
:102BF000FEF7B2F90949086001F090F90DE02A46A4
:102C0000142106480068FEF7D1F90446204602F078
:102C100087F804F1100003F079F8F0E79C00002039
:102C20002DE9F04198B0054600244FF07F560BA9DE
:102C300001A802F09DFD00BF9EE00DA801F017FD68
:102C400010A801F065FD14A801F0B2FD01F00AFE24
:102C50000746FDF70FFD17900BA802F0D3FB0024E9
:102C60003DE001AA52F824100DAA52F82400FDF705
:102C700003FB0DA941F8240004AA52F8241010AA5D
:102C800052F82400FDF7F8FA10A941F824003B4956
:102C900051F824003146FDF727FB0746374850F826
:102CA00024103846FDF7EBFA344941F824000DA909
:102CB00051F824003146FDF717FB07462F4850F81E
:102CC00024103846FDF786FA2C4941F824000846BE
:102CD00050F824100DA840F82410601CC4B2032C36
:102CE000BFDB00243EE007A951F824002449FDF78A
:102CF00047FD06D307A951F824002249FDF736FD08
:102D000007D2022C05D04FF47A700BA921F81400D9
:102D100026E007A951F824001949FDF731FD06D333
:102D200007A951F824001749FDF720FD06D2022C0F
:102D300004D100200BA921F8140011E00BA931F8EF
:102D40001400FDF7A0FC804607A850F82410404668
:102D5000FDF792FA0746FDF7ACFC0BA921F8140029
:102D6000601CC4B2042CBEDB0BA907480068FEF748
:102D7000A1F918B0BDE8F0815FE700002400002051
:102D800000004842000048C2C000002021B18289F2
:102D900042F40052828104E082894DF6FF731A40AA
:102DA0008281704702460020B1F5007F00D100BF4C
:102DB00013880B400BB1012000E000207047000099
:102DC0002DE9F04786B005460E460024A24600BF16
:102DD000A1460027B08900B100BF2F462C8A4CF6CF
:102DE000FF700440F08804432C82AC894EF6F31047
:102DF0000440B08831890843718908430443AC8199
:102E0000AC8A4FF6FF400440B0890443AC8201A86D
:102E1000FFF780FA1F48874202D1DDF810A001E0D9
:102E2000DDF80CA0A88900F4004040B10AEBCA000C
:102E300000EB0A1031684900B0FBF1F807E00AEB3B
:102E4000CA0000EB0A1031688900B0FBF1F8642079
:102E5000B8FBF0F004012009642101FB1089A88966
:102E600000F4004040B1322000EBC900B0FBF1F0AB
:102E700000F00700044308E0322000EB0910642151
:102E8000B0FBF1F000F00F0004432C8106B0BDE868
:102E9000F087000000380140C1F3080282807047CB
:102EA00000BFFEE70FB4054B10B503A9044A029812
:102EB00000F004FC10BC5DF814FB00007544000831
:102EC000D4000020490050EAC12018BF04204A0D58
:102ED00018BF40F0010040F2FF72B2EB515F08BF33
:102EE00040F00200012808BF052070472DE9F74F88
:102EF000144694B00021C4E902111599079121F0FC
:102F00000045C9498D4206DC1599C4E9000117B096
:102F10000020BDE8F08FC549DFF814A3A9423CDDCD
:102F20000799C44E0029C44FC44A1599534619DD68
:102F3000FDF7B9FA554506D0C14AC24BFDF7B3FAC1
:102F4000C4E900010AE04FF0D352BE4BFDF7ABFAE3
:102F500032463B46FDF7A7FAC4E9000117B001204D
:102F6000BDE8F08FFDF7FEF9554506D0B44AB54BE4
:102F7000FDF7F8F9C4E900010AE04FF0D352B14B74
:102F8000FDF7F0F932463B46FDF7ECF9C4E90001E4
:102F900017B04FF0FF30BDE8F08FAB49A94215994B
:102FA00078DB21F0004183468846A84AA84BFDF70C
:102FB00080FA0022A74BFDF7D5F9FDF7AEFD099089
:102FC000FDF766FB06460F469C4A5346FDF771FA2D
:102FD00043465A46FDF76AFA80468A46984A994B14
:102FE00030463946FDF765FA2A0D01250B92424617
:102FF0005346FDF75BFA032DC4E9000139D00B9865
:10300000C1F30A51401A05EB45111139814230DAFA
:103010009148C346784400EB0510CDF80CA00C9005
:10302000D0E9002330463946FDF743FA02460B4605
:103030000491069058460399FDF735FA80468A4672
:1030400002460B4658460399FDF72DFA049B069A53
:10305000FDF729FA83460C9803913946D0E90223FB
:103060003046FDF726FA5A46039BFDF71CFA6D1C05
:10307000BDE707980028A2BF099817B0BDE8F08FF8
:10308000616881F000416160099817B04042BDE875
:10309000F08FFFE784461598C1F31301C0F30A507F
:1030A000A0F2F5304FEA601800F01F06C6F12000CC
:1030B000139000200690079041F4801E05206D4675
:1030C00076B1664A08EB00017A4452F8213002EBEF
:1030D0008101B3404A68139922FA01F1194305E0CE
:1030E0005F4908EB0002794451F82210A1FB0E273A
:1030F000A1FB0C131A449A4234BF0123002303EBB3
:10310000070A05EB8003D3E901B70F448F4234BFB0
:103110000121002193448B4411B1934502D903E06E
:10312000934501D2012100E00021C3E901B75144D8
:1031300045F82010011EA0F10100C1DC0298059F96
:1031400000F10050800F12900298DDE903568000D4
:10315000FDF79EFA834628460D91FDF7D1FC6FF0EE
:103160001D02FDF723FCCDE90E013046FDF7C8FC3A
:103170006FF03D02FDF71AFC80468A463846FDF79F
:10318000BFFC6FF05D02FDF711FC07464246534657
:103190001191FDF7E7F8DDE90E23FDF7E3F85A4654
:1031A0000D9BFDF7DFF800250E465A4628460D9B7D
:1031B000FDF779F9DDE90E23FDF775F9424653462F
:1031C000FDF771F93A46119BFDF770F9DFF898A009
:1031D000244A5346FDF76DF907468846234A244B97
:1031E00031462846FDF765F93A464346FDF7BAF8F9
:1031F000074688464FF0A842534631462846FDF719
:1032000058F93A464346FDF7ADF8159A12F0004FCB
:1032100004D0129A81F0004152421292C4E9000196
:10322000129817B0BDE8F08FFB21E93F7CD902402E
:10323000FB21F93F7370032E8A19A33B0000405411
:103240003163621A61B4D03DFB21394183C8C96D35
:10325000305FE43F0000E03F002F00007C2E0000C4
:103260005E2E0000182D4454FB21F93D3326A61193
:10327000460B113C2DE9FF4D21F0004807460C4656
:10328000B8F1795F08DAFDF748FC002801BF00209B
:10329000324904B0BDE8F08D3A462346104619463F
:1032A000FDF707F9054602462D480E460B46062156
:1032B000784400F05DF82A463346FDF7FAF8DDE978
:1032C000022382468B4638462146FDF7F2F8044633
:1032D0000F4652465B4628463146FDF7EAF822463D
:1032E0003B46FDF7E0F807468A464FF0FF32284696
:1032F0003146FDF75BFB1B4A90450ADA3A465346D6
:10330000FDF7D1F804B00022BDE8F04D134BFDF7F6
:10331000CDB8154A4245A8BFA8F500154FF00004E6
:10332000B8BF124D22462B46FDF7BDF8064688462B
:1033300022462B4600200949FDF7B5F804460D4604
:103340003A46534630464146FDF7ADF804B02246B2
:103350002B46BDE8F04DFDF7A9B800000000F03F96
:10336000342C00003333D33F0000E93F0000D23F4C
:103370002DE9F0414F1E00EBC7010446D1E90001E1
:1033800015461E4637F006020DD02A463346FDF795
:1033900090F87F1E04EBC703D3E90023FCF7E2FF9C
:1033A00037F00602F1D1022F25D0042F13D0062FBB
:1033B00018BFBDE8F0812A463346FDF77AF8D4E914
:1033C0000A23FCF7CFFF2A463346FDF772F8D4E90B
:1033D0000823FCF7C7FF2A463346FDF76AF8D4E90D
:1033E0000623FCF7BFFF2A463346FDF762F8D4E90F
:1033F0000423FCF7B7FF2A463346FDF75AF8D4E911
:103400000223FCF7AFFF2A463346FDF752F8D4E912
:103410000023BDE8F041FCF7A5BF00002DE9FF4DFA
:10342000054621F0004084B00C46B0F1795F0BDA1C
:103430002846FFF747FD042808BF00F06FF828462C
:1034400008B02146BDE8F08D2A460B461046FDF730
:1034500030F806460F462A462346FDF72AF88046EE
:1034600026488A4632463B4605217844FFF780FFCE
:1034700083461098029160B3214A224B4046514640
:10348000FDF717F8CDE900015A4640465146029B28
:10349000FDF70FF882468846DDE906014FF0FF325E
:1034A000FDF784FA52464346FCF7FDFF32463B46A1
:1034B000FCF7FFFFDDE90623FCF7F5FFDDE900235C
:1034C000FCF7F1FF08B02A462346BDE8F04DFCF7B3
:1034D000EDBF0B465A4630463946FCF7EAFF084A2C
:1034E000084BFCF73FFF42465346FCF7E2FF08B0AB
:1034F0002A462346BDE8F04DFCF734BF722B00008E
:10350000495555555555C5BF0122FDF74FBA002203
:10351000134610461146FDF73EB80000024A00204F
:103520001107FDF743BA000001FDFFFF02E008C8E4
:10353000121F08C1002AFAD170477047002001E02D
:1035400001C1121F002AFBD1704700000149086029
:1035500070470000D80000202DE9FF5FDDE9022060
:10356000010DDDF838B0024318D044F61050A1F236
:10357000FF3141430D140F98012820D0A5EB0B001B
:10358000401C5FEA000A4FF00004474EDFF81C9130
:10359000A046504616D5CAF1000728E00F9801242E
:1035A00043A2012808D0002100980F9BC0E9002108
:1035B000C0E90243BDE8FF9F6FEA0B01F4E7CBF1DE
:1035C0000000DEE7074612E0F80707D02246334640
:1035D00040464946FCF76DFF804689462246334601
:1035E00010461946FCF765FF04460E467F10002F73
:1035F000EAD1DDE90201BAF1000F42464B4602DA98
:10360000FCF757FF01E0FCF7C6FF04460E46002218
:10361000284BFDF74BFA03D84FF0FF30014607E087
:103620000022254B20463146FCF79CFEFDF726FA8A
:10363000102409E0002C0ADB0A220023FDF7C0F861
:10364000019B30321A55641E50EA0102F2D1641C0B
:10365000019AC4F1110314440F9A012A03D00122E4
:1036600008430DD10AE0084304D000204FF0110BAD
:103670000F9080E7A3EB0B056D1E0DE05B4504DDAD
:103680004FF0000205F1010504E003DA4FF00002FB
:10369000A5F10105002AECD000980F99C0E902318C
:1036A000C0E9004586E70000000024400000F03F2C
:1036B000300000000000F0430000E03F2DE9FF4F24
:1036C00095B09B468946064600250FE2252877D10E
:1036D00000242746F84A0121059400E0044316F827
:1036E000013F203B01FA03F01042F7D130782A283D
:1036F00011D06FF02F033078A0F13002092A16D8CC
:10370000059A44F0020402EB820203EB42021044E9
:10371000761C0590EFE759F8042B0592002A03DA8E
:10372000504244F40054059044F00204761C307872
:103730002E2816D116F8010F44F004042A280DD0C3
:103740006FF02F023078A0F13003092B09D807EB76
:10375000870302EB4303C718761CF3E759F8047B91
:10376000761C30786C280FD006DC4C2817D06828DF
:103770000DD06A2814D104E0742810D07A280FD113
:103780000DE044F400140AE044F4801401E044F431
:1037900040147278824202D104F58014761C761CA3
:1037A000307866280BD013DC582877D009DC002845
:1037B00075D04528F6D04628F4D047281AD19DE187
:1037C00018E0632835D0642879D0652812D195E1B6
:1037D000702873D008DC6728F1D069286FD06E2874
:1037E0000DD06F2806D1B5E073282CD0752875D080
:1037F000782874D05A46179990476D1C75E1C4F328
:103800000250022809D003280DD0D9F8001004284E
:103810000DD00D6009F1040967E1D9F80010EA172D
:10382000C1E90052F6E7D9F800100D80F2E70D70FB
:10383000F0E719F8041B8DF8001000208DF8010046
:10384000EA46012003E059F804AB4FF0FF3061076E
:103850004FF0000102D40DE008F101018846B942A1
:103860000FDA8045F8DB1AF808100029F4D108E0D7
:1038700008F1010188468142FADB1AF80810002994
:10388000F6D105985B46A0EB080721463846179A03
:1038900000F094FA284400EB080507E04DE029E128
:1038A0000DE01AF8010B5A4617999047B8F1010834
:1038B000F7D25B4621463846179A13E142E00A22C6
:1038C0000092C4F302524FF0000A022A08D059F8BD
:1038D00004CB032A4FEAEC710AD00DE029E02AE07C
:1038E00009F1070121F00702F2E802C1914609E05F
:1038F0000FFA8CFC4FEAEC71042A03D14FFA8CFCCE
:103900004FEAEC71002907DA0A460021DCF1000CCD
:1039100061EB02012D2202E0220504D52B228DF855
:103920000420012203E0E20701D02022F7E79046BD
:1039300059E00A2102E010220DE010214FF0000AA8
:1039400000910BE010224FF0000A44F00404082715
:10395000009203E008224FF0000A0092C4F30252E2
:10396000022A05D059F804CB0021032A08D009E027
:1039700009F1070121F00702F2E802C1914605E0D2
:103980001FFA8CFC042A01D10CF0FF0C4FF0000848
:10399000220728D5702806D0009B83F0100353EA35
:1039A0000A0305D00EE040228DF80420012208E031
:1039B0005CEA010206D030228DF804208DF8050063
:1039C00002229046009B83F0080353EA0A030AD1BF
:1039D0005CEA010201D1620705D530228DF804208E
:1039E0004FF001087F1E582804D034A003900EA881
:1039F00002900DE036A0F9E753466046009AFCF7C6
:103A0000DFFE84460398825C0298401E029002709A
:103A10005CEA0100F0D1029806A9081A00F1200A18
:103A2000600702D524F4803400E00127574502DD09
:103A3000A7EB0A0000E0002000EB0A0100900598C7
:103A40004144401A0590E00306D45B462146179A8C
:103A5000059800F0B3F90544002706E001A85A468E
:103A6000C05D179990476D1C7F1C4745F6DBE0034E
:103A70000CD55B462146179A059800F09FF905443E
:103A800004E030205A46179990476D1C0099481E53
:103A900000900029F5DC08E0029802995A46007867
:103AA000491C0291179990476D1CBAF10001AAF1C7
:103AB000010AF1DC65E100000928010030313233F0
:103AC000343536373839616263646566000000005A
:103AD0003031323334353637383941424344454644
:103AE0000000000000F058F90544761C30780028EA
:103AF0007FF4ECAD19B02846BDE8F08F620700D422
:103B0000062709F1070222F0070CFCE80223E14630
:103B100003F000485FEA080C02D00FF2702C0DE0B1
:103B20005FEA045C02D50FF2682C07E05FEAC47C10
:103B300002D00FF2602C01E0AFF2700C4FF0FF38B2
:103B400023F00043CDF850C065280CD006DC452892
:103B500009D046281DD047283DD13DE0662818D021
:103B600067287ED138E00021112F01DB112000E011
:103B7000781CCDE9000106A90EA8FFF7EDFCDDE9F0
:103B80000F010E9A03910021009207F1010A04919E
:103B90004DE04FF000400097CDE9011006A90EA8B6
:103BA000FFF7DAFCDDE90F0203920E9B1199002268
:103BB000DDF80CA00093049211B9791C00EB010A06
:103BC000B7EB0A0004D4C0F1FF3007F1010A0490FA
:103BD000AAEB0700019044E0012F00DA0127002141
:103BE000112F01DD112000E03846CDE9000106A9C2
:103BF0000EA8FFF7B1FCDDE90F010E9A0391002139
:103C000004910092BA4621070CD40399514500DA79
:103C10008A46BAF1010F05DD009AAAF10101515C53
:103C2000302908D0B84202DA10F1040F06DA012177
:103C3000CDE9011015E0AAF10101E9E7002805DC52
:103C4000049901440491AAEB000102E0411C514592
:103C500000DD8A460499401A401C01904FF0004054
:103C60000290200704D40198504501DBCDF8048070
:103C700000208DF84F0002980DF14F07B0F1004F72
:103C800025D02B200E9002984FF0020800280CDA65
:103C9000404202902D200E9007E00A210298FCF786
:103CA00079FD3031029007F8011DB8F10001A8F14B
:103CB0000108F2DC02980028EFD1791E0E980870F6
:103CC000307800F0200040F0450007F8020D12A8FF
:103CD000C01B00F107081498007800B1012000EB28
:103CE0000A01019801EBE07105984144401A401E19
:103CF0000590E00306D45B462146179A059800F02C
:103D00005DF805441498007818B15A461799904701
:103D10006D1CE00324D55B462146179A059800F0F8
:103D20004DF805441CE00498002807DBDDE9030199
:103D3000884203DD0098405C179901E01799302014
:103D40005A469047049805F10105401C04900198DB
:103D5000401E019004D12E205A46179990476D1CA1
:103D6000BAF10001AAF1010ADDDC05E017F8010B48
:103D70005A46179990476D1CB8F10001A8F1010847
:103D8000F4DC5B462146179A0598ABE62D0000004F
:103D90002B000000200000002DE9F0410446002522
:103DA0001E461746880404D405E039462020B04753
:103DB0006D1C641EF9D52846BDE8F0812DE9F0415F
:103DC000044600251E469046C80301D5302700E072
:103DD0002027880404D505E041463846B0476D1CCD
:103DE000641EF9D52846BDE8F08110B504460021CF
:103DF0002046FCF7BBFC02D284F0004010BD2046F8
:103E0000FCE700002DE9F34F85B089464946059847
:103E1000FCF76AFA04904846FFF7E7FF0546059865
:103E2000FFF7E3FF06462946FCF7A0FC3AD23748E5
:103E30000499FCF727FA01900499FCF723FA8046CD
:103E40004FF07E51FCF7C6F90746FCF75FFC0546CC
:103E50000E460498FCF75AFC07464FF066322C4B8E
:103E6000FCF727FB2A463346CDE90201FCF793FB1A
:103E70008246FCF75EFC044600214846FCF776FCCF
:103E80003FD200210598FCF771FC05D2214920465C
:103E9000FCF7F2F9044634E01E492046FCF79AF993
:103EA00004462EE004990846FCF7ECF983461749CE
:103EB000FCF790F98246FCF729FCCDE90001049853
:103EC000FCF724FC82464FF06632114BFCF7F1FA06
:103ED0000746DDE90023FCF75EFB054600220E4B9A
:103EE000FCF7E4FACDE90201FCF723FC04460021CB
:103EF0000598FCF73BFC04D206492046FCF7BCF9C8
:103F00000446204607B0BDE8F08F0000295C8F3ED4
:103F100066A64C40000034430080564010B5002493
:103F2000FCF700F9044601F0EAFC01F0FFFA204634
:103F3000FCF7FCF810BD000000B5244B21F0004256
:103F400087B09A42DCBF0022134629DD204B9A42FB
:103F500008D140B94FF00100FFF7F8FAFFF7D7FAA0
:103F600007B000BD03DBFFF7CFFA07B000BD02AA20
:103F7000FEF7BCFF10F0030104BF0DF1080C9CE834
:103F80000F000DD0012001290ED0022914D00DF10F
:103F9000080C00909CE80F00FFF740FA07B000BD46
:103FA000FFF768F907B000BD0DF1080C00909CE820
:103FB0000F00FFF733FA05E00DF1080C9CE80F0045
:103FC000FFF758F907B081F0004100BDFB21E93F40
:103FD0000000F07F10B502A0FEF764FF10BD0000E6
:103FE00044656275672D7573617274312069732041
:103FF000776F726B696E670A000000001FB50121C0
:104000008803FEF777F94FF4E13000900020ADF817
:104010000C000C20ADF80A000020ADF80800ADF847
:104020000600ADF8040069460348FEF7C9FE012109
:104030000148FEF7ABFE1FBD0038014008B5012165
:104040000420FEF757F903208DF8020018208DF8A0
:1040500003004FF40070ADF8000069460748FCF714
:1040600086FD4FF48060ADF8000004208DF8030059
:1040700069460248FCF77BFD08BD000000080140CE
:1040800010B501F03DFEFFF7A5FF10BD0021002295
:1040900000BF07E0002201E0531C9AB28242FBDB22
:1040A0004B1C99B28142F5DB7047014601EBC1021E
:1040B0004FF0E0235A6101221A6100229A6100BF89
:1040C0004FF0E022106900F001021AB100F48032D2
:1040D000002AF5D000224FF0E0231A619A61704760
:1040E0002DE9F04F8DB081460C46D9F80000FCF761
:1040F0000DFB0746C94ACA4BFCF7DBF90546FCF73E
:1041000018FB0C90D9F80400FCF700FB0746C34AE3
:10411000C34BFCF7CEF90546FCF70BFB0B90D9F827
:104120000800FCF7F3FA0746BC4ABD4BFCF7C1F99F
:104130000546FCF7FEFA0A900A98FCF7E7FA0546EE
:10414000FFF7FAFE074688460B98FCF7DFFA0546AC
:10415000FFF7F2FE3A464346CDE90801FCF7A9F91C
:104160008246FCF7E6FA20600A98FCF7CFFA05468B
:1041700001F012FC074688460B98FCF7C7FA054683
:10418000FFF7DAFE82463A464346FCF792F9CDE95C
:104190000801FCF7CEFA60600B98FCF7B7FA074607
:1041A00001F0FAFB81F000410546FCF7C2FAA0607D
:1041B0000A98FCF7ABFA054601F0EEFB0746884685
:1041C0000C98FCF7A3FA0546FFF7B6FE82463A467E
:1041D0004346FCF76EF9CDE906010A98FCF796FA1A
:1041E0000546FFF7A9FECDE902010B98FCF78EFA10
:1041F000054601F0D1FB074688460C98FCF786FA85
:10420000054601F0C9FB82463A464346FCF751F9A0
:10421000CDE90001DDE90223FCF74BF9CDE904010A
:10422000DDE90623FCF73FF9CDE90801FCF781FA47
:10423000E0600A98FCF76AFA0546FFF77DFE07463C
:1042400088460C98FCF762FA0546FFF775FE824631
:104250003A464346FCF72DF9CDE906010A98FCF7EA
:1042600055FA054601F098FBCDE902010B98FCF7E1
:104270004DFA054601F090FB074688460C98FCF77E
:1042800045FA054601F088FB82463A464346FCF76C
:1042900010F9CDE90001DDE90223FCF70AF9CDE9C7
:1042A0000401DDE90623FCF75DF8CDE90801FCF720
:1042B00040FA20610B98FCF729FA0546FFF73CFE0F
:1042C000CDE908010C98FCF721FA054601F064FBE2
:1042D0008246DDE90823FCF7ECF80746FCF729FAEB
:1042E00060610A98FCF712FA054601F055FB074693
:1042F00088460C98FCF70AFA054601F04DFB824609
:104300003A464346FCF7D5F8CDE906010A98FCF792
:10431000FDF90546FFF710FECDE902010B98FCF709
:10432000F5F9054601F038FB074688460C98FCF77E
:10433000EDF90546FFF700FE82463A464346FCF794
:10434000B8F8CDE90001DDE90223FCF7B2F8CDE9C8
:104350000401DDE90623FCF705F8CDE90801FCF7C7
:10436000E8F9A0610A98FCF7D1F90546FFF7E4FDEA
:10437000074688460C98FCF7C9F9054601F00CFB86
:1043800082463A464346FCF794F8CDE906010A987E
:10439000FCF7BCF9054601F0FFFACDE902010B98E4
:1043A000FCF7B4F9054601F0F7FA074688460C9881
:1043B000FCF7ACF90546FFF7BFFD82463A46434697
:1043C000FCF777F8CDE90001DDE90223FCF771F88D
:1043D000CDE90401DDE90623FCF765F8CDE9080124
:1043E000FCF7A7F9E0610B98FCF790F90546FFF799
:1043F000A3FDCDE908010C98FCF788F90546FFF705
:104400009BFD0746DDE90823FCF753F88246FCF7DD
:1044100090F920620DB0BDE8F08F0000EC51B81E9D
:1044200085EB913F2DE9F05F04464FF07F594FF047
:104430007C512046FBF726FF824625462E460C4837
:10444000A0EB6606354629465046FBF71BFF834620
:104450002946FBF717FF80464946FBF710FF074642
:104460002946FBF70FFF05462846BDE8F09F0000F0
:10447000DF59375F70B504460D46E1B20548FEF7D7
:104480000BFD00BF80210348FEF78CFC0028F9D00B
:10449000204670BD0038014070B504460026FBF789
:1044A00041FE0646A0881E2803DD00202249088020
:1044B00070BDE58840F2B27085421BDD1E48B0F940
:1044C00000000A2806DA1C480088401C00B21A497D
:1044D00008802CE0184800880A2828D100201649B6
:1044E00008804FF480711548FCF7D7FB0120144970
:1044F00008701CE01E2D1ADA0F48B0F900000A28D7
:1045000006DA0D480088401C00B20B4908800EE016
:10451000094800880A280AD10020074908804FF47A
:1045200080710648FCF7B7FB00200549087030464B
:10453000FBF7FCFD00BFBBE720000020000C0140A2
:104540001E00002008B50020009001226946752059
:1045500000F0BCFA9DF80000682801D1012008BDD8
:104560000020FCE710B520216A2000F005FB08219F
:10457000242000F001FB1321342000F0FDFA01217A
:10458000672000F0F9FA1E21252000F0F5FA00213D
:10459000262000F0F1FA0421632000F0EDFA8121D9
:1045A000272000F0E9FA1E21252000F0E5FA01217C
:1045B000262000F0E1FAE021632000F0DDFA8121FD
:1045C000272000F0D9FA1E21252000F0D5FA02217B
:1045D000262000F0D1FA0021632000F0CDFA8121DD
:1045E000272000F0C9FA10BD0020002100BF08E01C
:1045F000002101E04A1C91B2B1F57A7FFADB421C3E
:1046000090B2B0F57A7FF3DB704710B520216A20B5
:1046100000F0B2FA0821242000F0AEFA9E212520F5
:1046200000F0AAFA0321262000F0A6FA862127200E
:1046300000F0A2FA10BD10B500F094FCFFF7D4FF13
:1046400000216B2000F098FA0721192000F094FA5D
:1046500006211A2000F090FA00211C2000F08CFAAC
:1046600018211B2000F088FAFFF76CFF10BD7FB502
:104670000446062269463B2000F028FA9DF8010016
:104680009DF8001040EA012000B2ADF808009DF846
:1046900003009DF8021040EA012000B2ADF80A00C4
:1046A0009DF805009DF8041040EA012000B2ADF825
:1046B0000C00BDF90800FBF7DDFF06464FF0804116
:1046C000FBF7E0FD05464FF08E41FBF70DFE206045
:1046D000BDF90A00FBF7CEFF06464FF08041FBF71D
:1046E000D1FD05464FF08E41FBF7FEFD6060BDF940
:1046F0000C00FBF7BFFF06464FF08041FBF7C2FD01
:1047000005464FF08E41FBF7EFFDA0607FBD000036
:104710007FB5044606226946432000F0D7F99DF88C
:1047200001009DF8001040EA012000B2ADF8080039
:104730009DF803009DF8021040EA012000B2ADF898
:104740000A009DF805009DF8041040EA012000B21F
:10475000ADF80C00BDF90800FBF78CFF06461349C5
:10476000FBF790FD05464FF08E41FBF7BDFD206045
:10477000BDF90A00FBF77EFF06460C49FBF782FDF8
:1047800005464FF08E41FBF7AFFD6060BDF90C00B0
:10479000FBF770FF06460549FBF774FD05464FF031
:1047A0008E41FBF7A1FDA0607FBD00000000FA4430
:1047B0002DE9FF47044606226946492000F086F9A4
:1047C0009DF801009DF8001040EA012000B2ADF80C
:1047D00008009DF803009DF8021040EA012000B295
:1047E000ADF80A009DF805009DF8041040EA01208C
:1047F00000B2ADF80C00BDF90800FBF73BFF8146A5
:10480000FBF784FF07464FF06632154BFBF751FE6E
:104810000546FBF78EFF2060BDF90A00FBF72AFF73
:104820008146FBF773FF07464FF066320C4BFBF7F0
:1048300040FE0546FBF77DFF6060BDF90C00FBF70D
:1048400019FF8146FBF762FF07464FF06632044BC3
:10485000FBF72FFE0546FBF76CFFA060BDE8FF8766
:10486000666611402DE9F04F85B000F08CF802A982
:10487000A22000F0B5F80DF10A01A42000F0B0F874
:1048800003A9A62000F0ACF80DF10E01A82000F05D
:10489000A7F804A9AA2000F0A3F80DF11201AC209A
:1048A00000F09EF801A9482000F07CF869465820E5
:1048B00000F078F8BDF810000099A1EB0024BDF8D5
:1048C00012000022E117A0FB043C02FB04C200FB23
:1048D0000120410241EAD3504FF4FA614018BDF87B
:1048E0000A104FF000004FEA004040EA11404FEA42
:1048F0000142BDF80E104FF000034FEAE47AA1FB2D
:1049000004CB03FB04B301FB0A334FEADC1141EA99
:104910004361551840EBE316BDF808104FF0000056
:104920004FEAC03040EA51404FEAC132BDF80C10A6
:104930004FF000034FEAE47CA1FB04AB03FB04B39C
:1049400001FB0C334FEA1A2141EA0361571840EB8F
:1049500023284FF000013B460198A0FB032A01FBEE
:1049600007A100FB08114FEA525040EAC1224FEA6A
:104970006150511B60EB0600420442EAD1394846BF
:1049800005B0BDE8F08F10B500F004FC4FF47A706C
:10499000FFF77CFB1E2000F06BF84FF47A70FFF7F6
:1049A00075FB10BD38B505460C46284600F060F88A
:1049B0004FF49670FFF76AFB002000F059F80321CE
:1049C000684600F025F89DF8000000049DF80110ED
:1049D00040EA01209DF802100843206038BD000025
:1049E00038B505460C4609A000680090284600F03E
:1049F0003FF80221684600F00BF89DF801009DF891
:104A0000001040EA0120208038BD000001010000B4
:104A100070B504460D464FF4005600BF00F062FC2E
:104A2000EF2000F029FC06E026B901210EA000F0DD
:104A3000E1F870BD761E00F091FC0028F4D10FE083
:104A4000012D06D1002000F0E9FB207000F068FC89
:104A500004E0012000F0E2FB2070641C681EC5B277
:104A6000002DEDD10120E4E74D5335363131000002
:104A700070B505464FF4005400F034FCEE2000F011
:104A8000FBFB06E024B901210EA000F0B3F870BDD5
:104A9000641E00F063FC0028F4D14FF40054284653
:104AA00000F0EAFB06E024B9022106A000F0A2F81B
:104AB000EDE7641E00F052FC0028F4D100F030FC59
:104AC0000120E4E74D533536313100002DE9F04146
:104AD00007460D4616464FF4005400F0E7FAD02082
:104AE00000F0B4FA07E02CB9012121A000F082F80F
:104AF000BDE8F081641E00F00DFB0028F3D14FF4F7
:104B00000054384600F0A2FA06E024B9022118A0A9
:104B100000F070F8ECE7641E00F0FCFA0028F4D115
:104B20004FF4005400F0C2FAD12000F08FFA06E0F2
:104B300024B903210EA000F05DF8D9E7641E00F04F
:104B4000E9FA0028F4D10FE0012E06D1002000F090
:104B500053FA287000F0C4FA04E0012000F04CFA87
:104B600028706D1C701EC6B2002EEDD10120BFE76B
:104B70004D5055363035300070B506460D464FF471
:104B8000005400F093FAD02000F060FA06E024B957
:104B9000012116A000F02EF870BD641E00F0BAFAD4
:104BA0000028F4D14FF40054304600F04FFA06E0EC
:104BB00024B902210DA000F01DF8EDE7641E00F0FD
:104BC000A9FA0028F4D1284600F040FA06E024B9FA
:104BD000032106A000F00EF8DEE7641E00F09AFA4A
:104BE0000028F4D100F07CFA0120D5E74D5055366D
:104BF0003035300070B504460D462A46214602A0E5
:104C0000FEF750F9002070BD257320493243B5C826
:104C1000B4FDB3ACCAB1A3A16572726F725F636F6A
:104C20006465203D25640A0010B5FCF717F90723D9
:104C30000D4A00210D48FCF7ADFB06230C4A00216C
:104C40000C48FCF7A7FB05230B4A00210B48FCF797
:104C5000A1FB04230A4A00210A48FCF79BFBFCF74E
:104C60006FFB002010BD0000D8020020212C00089E
:104C7000D8040020AD2A0008D806002051290008D9
:104C8000D8080020ED2B00082DE9F04704460D461A
:104C90001646A968A068FBF7F5FA8046696860685F
:104CA000FBF7F0FA814629682068FBF7EBFA8246A9
:104CB0004946FBF78FFA07464146FBF78BFA30600F
:104CC000A9686069FBF7DEFA804669682069FBF72E
:104CD000D9FA81462968E068FBF7D4FA824649464A
:104CE000FBF778FA07464146FBF774FA7060A9684B
:104CF000206AFBF7C7FA80466968E069FBF7C2FAE9
:104D000081462968A069FBF7BDFA82464946FBF750
:104D100061FA07464146FBF75DFAB060BDE8F087EF
:104D20002DE9F04F8BB004464FF00009E068FBF727
:104D3000EDFCCDE90601A068FBF7E8FC0546774AE3
:104D4000774BFBF7B6FBCDE902016068FBF7DEFCB1
:104D50000546724A734BFBF7ACFB07468846206852
:104D6000FBF7D4FC05466D4A6D4BFBF7A2FB824670
:104D70003A464346FBF7F6FACDE90001DDE90223A6
:104D8000FBF7F0FACDE90401DDE90623FBF7EAFAC7
:104D9000CDE90801FBF7A1FC2082E068FBF7B6FC37
:104DA000CDE90601A068FBF7B1FC05465B4A5D4B07
:104DB000FBF77FFBCDE902016068FBF7A7FC074624
:104DC000564A584BFBF775FB05460E462068FBF725
:104DD0009DFC0746514A534BFBF76BFB2A46334673
:104DE000CDE90001FBF7BEFA8246DDE90223FBF7BD
:104DF000B9FACDE90401DDE90623FBF7B3FACDE901
:104E00000801FBF76AFC6082E068FBF77FFC8246E2
:104E10008B46A068FBF77AFC0546404A404BFBF7FF
:104E200048FBCDE904016068FBF770FC05463B4A8E
:104E30003B4BFBF73EFB074688462068FBF766FCCA
:104E40000546364A374BFBF734FB3A464346CDE935
:104E50000001FBF787FACDE90201DDE90423FBF746
:104E600081FA52465B46CDE90601FBF77BFACDE9B4
:104E70000801FBF732FCA082E068FBF747FC8246A2
:104E80008B46A068FBF742FC0546244A254BFBF7FE
:104E900010FBCDE904016068FBF738FC05461F4AAA
:104EA0001F4BFBF706FB074688462068FBF72EFCE6
:104EB00005461A4A1A4BFBF7FCFA3A464346CDE937
:104EC0000001FBF74FFACDE90201DDE90423FBF70E
:104ED00049FA52465B46CDE90601FBF743FACDE9B4
:104EE0000801FBF7FAFBE08200BF10E004F11000BC
:104EF00030F81900B0F5FA6F05DD4FF4FA6104F1EE
:104F0000100020F8191009F1010000F0FF09B9F1B3
:104F1000040FEBDB0BB0BDE8F08F00007B14AE4755
:104F2000E17A94BFE17A943F10B540210C48FBF739
:104F3000B2FE80210A48FBF7B0FE0120FFF7B5F86A
:104F400080210748FBF7A7FE0120FFF7AEF84021BC
:104F50000348FBF7A2FE0120FFF7A7F810BD0000F1
:104F6000000C014008B501210820FDF7C3F92020FD
:104F7000ADF8000001208DF8020048208DF80300F4
:104F800069460D48FBF7F3FD14208DF803008020DF
:104F9000ADF8000069460848FBF7E9FD4020ADF890
:104FA000000014208DF8030069460348FBF7DFFD7D
:104FB00000F096F808BD0000000C014010B58021FB
:104FC0000C48FBF768FE40210A48FBF766FE01200B
:104FD000FFF76BF880210748FBF75FFE0120FFF722
:104FE00064F880210348FBF756FE0120FFF75DF8C7
:104FF00010BD0000000C014070B5054600240026DD
:1050000018E06006040E80210F48FBF746FE0120E1
:10501000FFF74BF840210C48FBF734FE08B1601C49
:10502000C4B280210848FBF736FE0120FFF73DF8A7
:10503000701CC6B2082EE4DB15B9FFF7BFFF01E014
:10504000FFF772FF204670BD000C014070B50446AA
:10505000002526E004F0800020B140211248FBF733
:105060001CFE03E040211048FBF715FE0120FFF76E
:105070001CF880210C48FBF710FE0120FFF715F803
:1050800080210948FBF707FE072D03D14021064880
:10509000FBF703FE6006040E0120FFF706F8681C0C
:1050A000C5B2082DD6DB70BD000C014010B5402103
:1050B0000A48FBF7F2FD80210848FBF7EEFD0420CB
:1050C000FEF7F3FF40210548FBF7E5FD0420FEF75E
:1050D000ECFF80210148FBF7DEFD10BD000C014014
:1050E00010B580210A48FBF7D6FD40210848FBF7A0
:1050F000D2FD0420FEF7D9FF80210548FBF7CDFD46
:1051000040210348FBF7C9FD0420FEF7CEFF10BD88
:10511000000C014010B540210E48FBF7BEFD0120F8
:10512000FEF7C3FF80210B48FBF7B7FD0120FEF718
:10513000BCFF40210748FBF7A5FD08B1012400E0B2
:10514000002480210348FBF7A6FD0120FEF7ADFFF8
:10515000204610BD000C014010B54FF480610C4892
:10516000FBF799FD4FF400610948FBF794FD02201D
:10517000FEF79BFF4FF480610548FBF78EFD022090
:10518000FEF793FF4FF480610148FBF784FD10BDEB
:10519000000C014008B501210820FDF7ABF84820BC
:1051A0008DF8030001208DF802004002ADF80000E8
:1051B00069460848FBF7DBFC14208DF803004FF428
:1051C0004060ADF8000069460248FBF7D0FC00F0F3
:1051D000A7F808BD000C014010B54FF480610E48DF
:1051E000FBF759FD4FF400610B48FBF756FD01201A
:1051F000FEF75BFF4FF480610748FBF74EFD01208F
:10520000FEF753FF4FF480610348FBF744FD012094
:10521000FEF74BFF10BD0000000C014070B50546C5
:10522000002400261BE06006040E4FF48061114844
:10523000FBF733FD0220FEF738FF4FF400610D4805
:10524000FBF720FD08B1601CC4B24FF4806109482F
:10525000FBF721FD0120FEF728FF701CC6B2082EC7
:10526000E1DB15B9FFF7B8FF01E0FFF775FF204656
:1052700070BD0000000C014070B5044600252BE015
:1052800004F0800028B14FF400611548FBF705FDDC
:1052900004E04FF400611248FBF7FDFC0120FEF72B
:1052A00004FF4FF480610E48FBF7F7FC0120FEF786
:1052B000FCFE4FF480610A48FBF7EDFC072D04D19A
:1052C0004FF400610648FBF7E8FC6006040E01207D
:1052D000FEF7EBFE681CC5B2082DD1DB70BD0000E7
:1052E000000C014010B54FF400610C48FBF7D5FCF1
:1052F0004FF480610948FBF7D0FC0420FEF7D5FE8F
:105300004FF400610548FBF7C6FC0420FEF7CDFE14
:105310004FF480610148FBF7BEFC10BD000C01405A
:1053200010B54FF480610C48FBF7B5FC4FF40061F9
:105330000948FBF7B0FC0420FEF7B7FE4FF480618C
:105340000548FBF7AAFC4FF400610348FBF7A5FCF6
:105350000420FEF7AAFE10BD000C014010B54FF46A
:1053600000611048FBF799FC0120FEF79EFE4FF408
:1053700080610C48FBF791FC0120FEF796FE4FF48C
:1053800000610848FBF77EFC08B1012400E000241E
:105390004FF480610348FBF77EFC0120FEF785FE99
:1053A000204610BD000C01402DE9F04105460026C5
:1053B00000240CE055F8241055F82400FAF762FF99
:1053C00080463146FAF706FF0646601CC4B2032C3D
:1053D000F0DB3046FFF726F80746002408E055F8D2
:1053E00024003946FAF74EFF45F82400601CC4B289
:1053F000032CF4DBBDE8F08110B500F083F900F078
:1054000055F910BD2DE9FC4104469DF800109DF8AA
:10541000012041EA0220FBF72DF907464FF08A41AF
:10542000FAF762FF06462E49FAF72CFF0546FBF70E
:1054300040F920809DF802109DF8032041EA0220E7
:10544000FBF718F907464FF08A41FAF74DFF064679
:105450002349FAF717FF0546FBF72BF960809DF803
:1054600004109DF8052041EA0220FBF703F90746E6
:105470004FF08A41FAF738FF06461949FAF702FF5A
:105480000546FBF716F9A0809DF806109DF8072049
:1054900041EA0220FBF7EEF807464FF08A41FAF79F
:1054A00023FF06460E49FAF7EDFE0546FBF701F924
:1054B000E08021880BA20DA0FDF7F4FC618809A211
:1054C0000EA0FDF7EFFCA18806A210A0FDF7EAFCF4
:1054D000E18804A211A0FDF7E5FCBDE8FC81000015
:1054E00000007A442020200A00000000522D2D6187
:1054F000696C3A2025642573000000004C2D2D6551
:105500006C653A202564257300000000522D2D742F
:1055100068723A2025642573000000004C2D2D721E
:1055200075643A20256425730000000030B51249E7
:10553000B1F1807F00D31DE021F07F40401E4FF08D
:10554000E022506150170022002807DA13071D0ED1
:105550000A4B00F00F04241F1D5503E013071C0E17
:10556000074B1C5400BF00204FF0E0229061072041
:10557000106100BF30BD00004019010018ED00E0CF
:1055800000E400E0F0B587B00024002500260027E5
:1055900001210846FCF79EFE0020ADF81600ADF88C
:1055A000120040F65F10ADF814004720ADF810006F
:1055B00000208DF8180004A94FF08040FDF776F91F
:1055C0006020ADF800000120ADF802000020ADF829
:1055D0000800ADF8064069464FF08040FDF702F83C
:1055E000ADF8065069464FF08040FDF751F8ADF830
:1055F000066069464FF08040FDF7AAF8ADF80670E6
:1056000069464FF08040FDF7FDF80821C806FDF718
:1056100035F80821C806FDF78DF80821C806FDF702
:10562000E7F80821C806FDF72BF901218807FCF7E8
:10563000CDFF07B0F0BD000008B501210420FCF744
:1056400059FE18208DF8030003208DF80200012078
:10565000ADF8000069461448FBF789FA0220ADF85E
:10566000000069461048FBF782FA0420ADF80000FC
:1056700069460D48FBF77BFA0820ADF80000694643
:105680000948FBF774FA01210748FBF704FB0221E4
:105690000548FBF700FB04210348FBF7FCFA08214F
:1056A0000148FBF7F8FA08BD0008014000B585B0D5
:1056B00001210803FCF71EFE1020ADF80C000020AD
:1056C000ADF80800ADF806000720ADF81000002086
:1056D000ADF80400ADF80000ADF80E004FF4827094
:1056E000ADF802004FF40070ADF80A0069460448B6
:1056F000FCF794FE01210248FCF776FE05B000BDE0
:105700000030014008B501210420FCF7F3FD012120
:105710000846FCF7EFFD18208DF8030001208DF8F6
:105720000200E020ADF8000069460F48FBF71FFAC1
:1057300010208DF80300ADF8000069460A48FBF719
:1057400016FA0220ADF8000069460848FBF70FFA88
:1057500048208DF803000120ADF800006946034899
:10576000FBF705FA08BD000000080140000C0140ED
:105770002DE9F0418AB005460E46002007900890BA
:10578000099004900590069000900190029003907B
:1057900000245EE0002045F82400002105F10C0003
:1057A00040F82410002736E006F10800FEF75FFFFE
:1057B00006F11400FEF7ACFF022C0CDA06F1080229
:1057C00052F8241007AA52F82400FAF703FD07A99B
:1057D00041F8240011E006F1080151F824004FF0CF
:1057E0007E51FAF749FD804607A850F8241040463C
:1057F000FAF7F0FC07A941F8240006F1140252F868
:10580000241004AA52F82400FAF7E4FC04A941F891
:105810002400781CC7B2C82FC6DB3846FAF733FF1E
:10582000804607A951F824004146FAF75DFD45F886
:1058300024003846FAF727FF804604A951F82400CF
:105840004146FAF751FD05F10C0141F82400601CB6
:10585000C4B2032C9EDB00243EE0002105F11800B9
:1058600040F82410002726E03046FFF7CBFD36F83D
:10587000140040F24C41884214DA36F81400B0F5B6
:10588000617F0FDD36F81410A1F57A70FAF7F2FE99
:1058900080465DF82410FAF79DFC4DF82400781C32
:1058A000C7B208E00E48A8610146E9612962696251
:1058B0000AB0BDE8F081322FD6DB3846FAF7E3FEB6
:1058C00080465DF824004146FAF70EFD05F1180107
:1058D00041F82400601CC4B2042CBEDB00BFE7E723
:1058E0000000C8424169826942618161826882F038
:1058F0000041C26882F000428260C160704710B50A
:10590000FEF7BEFB00F0DCF9FEF795FEFEF72AFE7F
:10591000FEF77BFEFFF737F800F0BEF800F016F94F
:1059200000F0E8F910BD00002DE9F04704460D46EF
:1059300028263046FAF79EFE8146F106FAF7A2FCC9
:1059400080461449FAF7D0FC07462188A1F57A7001
:10595000FAF790FE80463946FAF794FC2860618891
:10596000C1F57A70FAF786FE80463946FAF78AFC66
:105970006860E188A1F57A70FAF77CFE80463946C6
:10598000FAF780FCA860A088FAF77DFEE860BDE821
:10599000F08700000000FA4400B5254B21F00042DA
:1059A00087B09A4203DC0022134600922BE0214B81
:1059B0009A4208D140B94FF00100FDF7C7FDFDF74D
:1059C000A6FD07B000BD03DBFDF79EFD07B000BDDF
:1059D00002AAFDF78BFA10F003014FF001000DD081
:1059E000012914D002291AD00DF1080C9CE80F00EF
:1059F000FDF740FC07B081F0004100BD0DF1080C3F
:105A000000909CE80F00FDF709FD07B000BD0DF107
:105A1000080C9CE80F00FDF72DFC07B000BD0DF150
:105A2000080C00909CE80F00FDF7F8FCE2E700008E
:105A3000FB21E93F0000F07F1FB514A103C9CDE9A8
:105A4000020102211348FBF726F9052202A93020A2
:105A500000F0A8F805226946102000F039F802216C
:105A60000C48FBF71AF9002406E01DF80400A528ED
:105A700000D003E0601CC4B2052CF6DB00BF052C8F
:105A800002D1012004B010BD0020FBE7A5A5A5A50B
:105A9000A5000000000C014010B5FFF7ADFC10217F
:105AA0000548FBF7FAF8FFF7C7FF0446214603A0B5
:105AB000FDF7F8F910BD0000000801404368656378
:105AC0006B696E67206E72662E2E2E2025640A008A
:105AD0002DE9F04105460E46174610210C48FBF70C
