:020000040800F2
:100000004826002001010008EF0C0008E70C00085A
:10001000EB0C0008B10B00082D18000800000000D0
:100020000000000000000000000000002112000895
:10003000B50B0008000000006F0100080D13000858
:100040001B0100081B0100081B0100081B01000820
:100050001B0100081B0100081B0100081B01000810
:100060001B0100081B0100081B0100081B01000800
:100070001B0100081B0100081B0100081B010008F0
:100080001B0100081B0100081B0100081B010008E0
:100090001B0100081B0100081B0100081B010008D0
:1000A0001B0100081B0100081B0100081B010008C0
:1000B0001B0100081B0100081B0100081B010008B0
:1000C0001B0100081B0100081B0100081B010008A0
:1000D0001B0100081B0100081B0100081B01000890
:1000E0001B0100081B0100081B010008DFF80CD0F1
:1000F00000F01EFD004800475D3B00084826002038
:100100000648804706480047FEE7FEE7FEE7FEE7B1
:10011000FEE7FEE7FEE7FEE7FEE7FEE73513000831
:10012000ED000008EFF3108072B6704780F310887E
:1001300070471F484FF0FF010170002080F30988CD
:100140001C48016881F308881B48012101701B4885
:100150004FF08051016062B6FEE718484FF08051C1
:100160000160704715484FF080510160704772B6CA
:10017000EFF3098028B1203880E8F00F10490968B2
:10018000086000B50F4880475DF804EB0E480F4942
:100190000A7802700A480E490A680260106890E8FE
:1001A000F00F203080F309884EF0040E62B67047DD
:1001B00022ED00E0340000206200002004ED00E0A9
:1001C00068000020D90D00085700002058000020CA
:1001D0007000002040EA01039B0703D009E008C932
:1001E000121F08C0042AFAD203E011F8013B00F8FC
:1001F000013B521EF9D27047F0B480EA0102D40FDD
:100200004200B2EB410F02D20246084611464A00B4
:1002100042D0C30DDDB2C1F3C752AD1A202D35DA7D
:10022000C1F3160141F4000204B15242C5F12006A7
:1002300002FA06F12A411044B3EBD05F23D0C4B1D7
:10024000012DA0EBC35009DCF0BC4FF0004202EAE4
:10025000C352DBB200F5000000F047BB400000F1E4
:10026000807000EBC350A0F1807040EAD17049006B
:1002700009E0490841EAC071A0EBC35000F5000055
:10028000400800EBC350F0BC00F026BB61420122E5
:1002900002EB4101001BF6E7F0BC704781F0004122
:1002A000AAE780F00040A7E780EA010210B502F05B
:1002B0000043400022D04A001FD0010E01EB126122
:1002C000C0F35600C2F3560240F4000042F40002AC
:1002D000A0FB022000047F39140400D0401C50EA27
:1002E000124001D44000491EC2B20C0604EBD010EB
:1002F000401C4008802A02D003E0002010BD20F0FE
:100300000100002900DA0020184310BD30B480EA53
:10031000010202F0004530F0004221F0004013D00D
:1003200090B1C30DD40DC2F31601C0F31600E41A48
:1003300041F4000140F400027D34914201D3641C79
:1003400000E04900002C02DA30BC002070474FF476
:1003500000000023914201D3891A034340084FEA69
:100360004101F7D151B1914202D14FF0004105E076
:1003700002D24FF0010101E06FF0010103EBC45024
:10038000284430BC00F0A8BA2DE9FE4F804681EA2F
:100390000300C00F0C46009021F0004123F00045FF
:1003A000B8EB0200A94105D24046214690461C46C2
:1003B0000B46024623F00040104347D0270DC7F3F9
:1003C0000A00C3F30A510290401A019040286BDAE8
:1003D000C3F3130040F4801B0098924620B1002321
:1003E000D2EB030A63EB0B0B01985946C0F14002B4
:1003F000504600F040FA06460D4650465946019ACE
:1004000000F058FA10EB08006141002487EA11520D
:1004100084EAE7731A4340D0009A62B3019A012A32
:100420004FEA075215DC001B61EB02014FF000425E
:1004300002EA0752CDE90042001C41F58011324624
:100440002B4600F08FFA03B0BDE8F08F40462146FE
:10045000F9E7001B61EB0201001C41F58013001855
:100460005B412018A2F5001747EB030140EAD57065
:10047000B6196D4111E06D084FEA360645EAC075C0
:100480004FEA0752001B61EB0201001C41F580118D
:1004900049084FEA30000019514132462B4603B05B
:1004A000BDE8F04F00F04FBA009801224000002351
:1004B000D0EB020263EBE073009821464FEAE07450
:1004C000B8EB000061EB0401E9E783F000435BE770
:1004D00081F0004158E72DE9FE4F81EA030404F062
:1004E000004421F0004100944FF0000B23F0004342
:1004F00050EA01045ED052EA03045BD0C3F30A540D
:10050000C1F30A552C44A4F2F3340194A0FB025425
:10051000C1F3130141F48011C3F3130343F48013B7
:1005200001FB024400FB034E840A970A44EA81540B
:1005300047EA8357A4FB076802958D0A05FB0785E8
:100540004FEA932C04FB0C542705029D4FEA0658F2
:1005500047EA1637B5EB08056EEB070C870E920ECF
:1005600047EA811742EA8312A7FB0201B6EB0B01AF
:1005700064EB00042B0D43EA0C335E1844EB1C5073
:10058000DA465146E7FB0201C5F313044FEA0B3389
:1005900043EA14534FEA0432019C43EA0603A4F1F0
:1005A0000C040294009CCDE900B400F0DBF903B028
:1005B000BDE8F08F00200146F9E72DE9F04D81EA12
:1005C000030404F0004B21F0004514464FF0000AEC
:1005D00023F0004150EA050220D054EA01021DD068
:1005E000C5F30A570246C5F31303C1F31300C1F361
:1005F0000A5640F4801543F48013A7EB0608101B3D
:10060000D64608F2FD3873EB050002D308F1010865
:1006100001E092185B41B8F1000F03DA00200146B7
:10062000BDE8F08D00204FF48011064684460EE0B0
:10063000171B73EB050705D3121B63EB050306437A
:100640004CEA010C49084FEA300092185B4150EA2D
:100650000107EDD152EA030012D082EA040083EAD6
:100660000501084305D0101BAB4106D2012200232F
:1006700006E000224FF0004302E06FF00102531049
:100680001AEB06004CEB085110EB0A0041EB0B0192
:10069000BDE8F04D00F057B9C10F80EAE0700844A2
:1006A000CA079623002100F020B9962300221146A4
:1006B00000F01BB90EB5C10F80EAE0700844CA070C
:1006C000002140F233438DE80E000A460B4600F04D
:1006D00049F903B000BD00F0004220F00040C10D18
:1006E000C0F3160040F400007F2901DA00207047B3
:1006F000962903DCC1F19601C84001E09639884093
:10070000002AF4D04042704720F00040C10DC0F3F1
:10071000160040F400007F2901DA00207047962976
:1007200003DCC1F19601C840704796398840704794
:10073000C1F30A5210B5C1F3130140F2FF3341F483
:1007400080119A4201DA002010BD40F233439A42F0
:10075000A2F2334203DC524200F09CF810BD9040FC
:1007600010BD00F0004230F000400AD0C10D01F58C
:100770006071C0F3160042EA0151C20840071143FC
:10078000704700200146704701F0004330B421F06B
:10079000004150EA010206D00A0DA2F56072C1F3D1
:1007A0001301002A02DC30BC00207047440F44EAE9
:1007B000C104C100E01830BC00EBC25000F08CB89E
:1007C000002801DBC0F10040002901DBC1F100413C
:1007D00081427047002801DBC0F10040002901DBA5
:1007E000C1F100418842704730B50B4601460020F8
:1007F0002022012409E021FA02F59D4205D303FAE3
:1008000002F5491B04FA02F52844151EA2F1010263
:10081000F1DC30BD2DE9F05F0546002092469B4695
:1008200088460646814640241BE028464146474606
:10083000224600F02FF853465A46C01A914110D371
:1008400011461846224600F016F82D1A67EB0108EB
:100850004F4622460120002100F00DF817EB000959
:100860004E41201EA4F10104DFDC484631462A46F1
:100870004346BDE8F09F202A04DB203A00FA02F14B
:10088000002070479140C2F1200320FA03F319437E
:1008900090407047202A04DB203A21FA02F0002120
:1008A000704721FA02F3D040C2F120029140084380
:1008B00019467047202A06DBCB17203A41FA02F08E
:1008C00043EAE07306E041FA02F3D040C2F12002AD
:1008D00091400843194670470029A8BF7047401C43
:1008E000490008BF20F00100704710B4B0FA80FC46
:1008F00000FA0CF050EA010404BF10BC704749B183
:10090000CCF1200421FA04F411FA0CF118BF0121F2
:1009100021430843A3EB0C01CB1D4FEA00614FEAD2
:10092000102042BF002010BC704700EBC3501044A1
:100930000029A4BF10BC7047401C490008BF20F02C
:10094000010010BC704710B5141E73F1000408DAE2
:10095000401C41F1000192185B411A4301D120F083
:10096000010010BD2DE9F04D92469B4611B1B1FA40
:1009700081F202E0B0FA80F220329046FFF77BFF6E
:1009800004460F4640EA0A0041EA0B0153465A4624
:10099000084313D0114653EA010019D0C8F14002B0
:1009A0005046FFF777FF05460E46504659464246E9
:1009B000FFF761FF084305D0012004E020463946D7
:1009C000BDE8F08D0020054346EAE0762C4337432E
:1009D0000A986305E40AA0EB08000022FD0A44EA35
:1009E00047540A3002D500200146E9E701051019F5
:1009F0006941DDE9084500196941BDE8F04DA2E70C
:100A000070B521F0004303430CD0C1F30A55002414
:100A1000D5EB040564EB0403D617AD1AB34102DB32
:100A20000020014670BD201841EB025170BD2DE938
:100A3000F04D00231A461B1A8A4103DB00200146B1
:100A4000BDE8F08DC1F30A52C1F3130141F48015E2
:100A50004FF0000BD10702D100186D41521E002744
:100A6000044640F2FF11384601EB620A3E468046DA
:100A7000024600204FF48011FFF70CFFC2197141AC
:100A8000BB1846EB0100B4EB030C75EB000C04D370
:100A9000E41A65EB000517460E46241908F101001B
:100AA0006D4180463428E3DDF91946EB0600091B49
:100AB000A84103D24FF0FF32134601E00022134653
:100AC0001BEB070046EB0A51BDE8F04DFFF73BBFBB
:100AD000C1F30A52C1F3130140F2FF3341F4801114
:100AE0009A4202DA00200146704740F233439A42AC
:100AF000A2F2334202DC5242FFF7CCBEFFF7BBBE8C
:100B000030B5041E71F1000404DB4FF00044404294
:100B100064EB0101141E73F1000405DB1C464FF069
:100B20000043524263EB0403994208BF904230BD38
:100B3000064C074D06E0E06840F0010394E807002A
:100B400098471034AC42F6D3FFF7D4FA4850000867
:100B5000685000080EB540F2334102910021CDE902
:100B600000110A460B46FFF7FDFE03B000BD70B54D
:100B7000C1F30A5201F000450024C1F3130140F211
:100B8000FF3341F480119A4201DA002070BD40F237
:100B900033439A42A2F2334203DC5242FFF77AFE19
:100BA00000E090402C43F1D0404270BD7047704748
:100BB00000BFFEE770472DE9F04102460025002600
:100BC000002000230024002791F803C00CF00F053B
:100BD00091F803C00CF0100CBCF1000F03D091F899
:100BE00002C04CEA050591F800C0BCF1000F31D0FD
:100BF000146800202BE04FF0010C0CFA00F3B1F860
:100C000000C00CEA03069E4220D183004FF00F0C77
:100C10000CFA03F7BC4305FA03FC4CEA040491F810
:100C200003C0BCF1280F06D14FF0010C0CFA00FCF8
:100C3000C2F814C00AE091F803C0BCF1480F05D116
:100C40004FF0010C0CFA00FCC2F810C0401C082840
:100C5000D1D31460B1F800C0BCF1FF0F34DD54688B
:100C600000202EE000F1080C4FF0010808FA0CF308
:100C7000B1F800C00CEA03069E4221D183004FF078
:100C80000F0C0CFA03F7BC4305FA03FC4CEA04040E
:100C900091F803C0BCF1280F05D100F1080C08FA47
:100CA0000CF8C2F8148091F803C0BCF1480F07D1CA
:100CB00000F1080C4FF0010808FA0CF8C2F8108097
:100CC000401C0828CED35460BDE8F08102460020C5
:100CD00093680B400BB1012000E000207047416198
:100CE00070470161704700BFFEE700BFFEE7704735
:100CF00010B500241A480078012830D1FFF712FA05
:100D000004461848007820B116480078401E15495E
:100D1000087014480078F8B913480078E0B900F07A
:100D2000A7F912481249097850F8210011490860C2
:100D30000F4800781049097888420DD00D480068A6
:100D4000C06A401C0B490968C8620C480068401C16
:100D50000A490860FFF706FA2046FFF7E7F910BDD9
:100D60006200002055000020560000207C15002065
:100D70005800002070000020570000203C00002098
:100D800070B5044600252078032801D0012070BDED
:100D9000FFF7C8F90546A07A60B100230122194681
:100DA000204600F0B1F82846FFF7C0F900F026F918
:100DB0000020ECE720894FF6FF71884207D2208996
:100DC000401C20812846FFF7B1F90020DFE72846C4
:100DD000FFF7ACF93320DAE710B5FFF7E7FE10BDF7
:100DE00070B5002600F072F8FFF79CF9064631480E
:100DF0000068401C2F4908603046FFF797F92E48DD
:100E00000078012853D12D48007820B1012804D062
:100E1000022809D103E001250BE0002509E00125A6
:100E200001202649087004E00125002023490870AC
:100E300000BF00BF05B970BD2148046833E0FFF76B
:100E400071F90646206A50B3206A401E2062206A6B
:100E500028BB94F8240000F0370040B114F8240FA8
:100E600000F0C800207001206070243C02E00020E7
:100E700084F8250094F8240000F0080078B928349C
:100E8000A0781049097808430E49087020780E4967
:100E9000085C6178084314F828190B4A50546468B8
:100EA0003046FFF743F994F826003F28C7D100BF2A
:100EB000C1E70000880000206200002078000020C8
:100EC00074000020590000205A00002010B5FFF7E0
:100ED0006EFE07480088401C0549088008460088C7
:100EE000642803DB0020088000F004F810BD000037
:100EF0003800002010B503480068FFF741FF0446A2
:100F0000204610BD980000202DE9F04F05460F4601
:100F100090469946A87A1C490E5C05F10B00805D4D
:100F200011F800B00BEBC60000F0FF0A174850F8AC
:100F30002A4000201434E0602760207C20EA08006A
:100F4000207484F81190207C143C00F0080068B9EB
:100F500094F82A000E49097808430D4908700D4895
:100F6000805D94F8291008430A498855294620468F
:100F700000F012F8206920B12046216900F021F824
:100F8000E5605046BDE8F08F244E00087C15002037
:100F9000590000205A00002010B590F8282001F1D7
:100FA0000B039B5C90F82940A34301F10B04A3546D
:100FB00023469B5C23B98B7A90F82A40A3438B721B
:100FC00010BDF0B5024612F8284F95785678283AA9
:100FD0000B4618680FE000F10B073F5DB74300F1C7
:100FE0000B0C0CF8047067463F5D17B9877AAF4366
:100FF00087721B1D18680028EDD1F0BD10B50024C4
:10100000FFF790F8044613480078F8B912480078C2
:10101000E0B900F02DF811481149097850F8210085
:10102000104908600E4800780F49097888420DD0B1
:101030000C480068C06A401C0A490968C8620B482D
:101040000068401C09490860FFF787F82046FFF751
:101050006DF810BD55000020560000207C150020C2
:101060005800002070000020570000203C000020A5
:101070000649074A1278885C0649095C034A515CB4
:1010800001EBC001044A117070470000244E0008B3
:10109000590000205A0000205800002029B1064ABB
:1010A000D2690243044BDA6104E0034AD269824305
:1010B000014BDA61704700000010024029B1064A76
:1010C00092690243044B9A6104E0034A92698243A5
:1010D000014B9A61704700000010024030B50021BA
:1010E0000022002400232D4D6D6805F00C0121B174
:1010F000042905D0082923D105E0294D056022E007
:10110000274D05601FE0254D6D6805F47012234DD5
:101110006D6805F48034022505EB92421CB9214D1F
:10112000554305600BE01D4D6D6805F400351DB19C
:101130001C4D5543056002E0194D5543056002E022
:10114000174D056000BF00BF144D6D6805F0F0013C
:101150000909154D6B5C0568DD4045600F4D6D68F4
:1011600005F4E061090A104D6B5C4568DD4085605F
:101170000A4D6D6805F46051C90A0B4D6B5C4568FA
:10118000DD40C560054D6D6805F44041890B074D94
:101190006B5CC568B5FBF3F5056130BD001002401E
:1011A00000127A0000093D0000000020100000201D
:1011B00021B1028842F04002028004E002884FF62A
:1011C000BF731A40028070470246002013890B400B
:1011D0000BB1012000E0002070470146888970476C
:1011E0008181704710B50022028802F441520B88B9
:1011F0004C8823438C882343CC8823430C89234386
:101200004C8923438C892343CC8923431A4302808E
:10121000838B4FF2FF74234083830B8A038210BDBC
:10122000704710B500F002F810BD00000CB50020AA
:10123000019000903348006840F4803031490860E4
:1012400000BF3048006800F4003000900198401C56
:101250000190009818B90198B0F5A06FF1D1294814
:10126000006800F4003010B10120009001E000207F
:1012700000900098012843D12348006840F01000F6
:10128000214908600846006820F00300086008460D
:10129000006840F0020008601A4840681949486038
:1012A0000846406848600846406840F480604860EE
:1012B0000846406820F47C1048600846406840F4C6
:1012C000E81048600846006840F08070086000BF81
:1012D0000C48006800F000700028F9D00948406808
:1012E00020F00300074948600846406840F00200CB
:1012F000486000BF0348406800F00C000828F9D19E
:101300000CBD0000001002400020024010B5FEF7A6
:1013100009FF044606480078401C0549087020462D
:10132000FEF704FFFFF75CFDFFF7E2FC10BD0000D5
:101330005500002010B51348006840F00100114925
:10134000086008464068104908400E494860084651
:1013500000680E4908400B4908600846006820F400
:10136000802008600846406820F4FE0048604FF482
:101370001F008860FFF755FF4FF0006004490860C8
:1013800010BD0000001002400000FFF8FFFFF6FE55
:1013900008ED00E021B1028842F00102028004E081
:1013A00002884FF6FE731A400280704770B5002421
:1013B00000220023058C4FF6FE7635400584028C12
:1013C0008388048B4FF68F752C40B51E2C400D88FA
:1013D0002C43751E2A400D892A434D882A43144DFB
:1013E000A8420BD0134DA84208D0134DA84205D0F7
:1013F000124DA84202D0124DA84213D14FF6F775F4
:101400002A404D892A434FF6FB752A408D882A438E
:101410004FF6FF652B404FF6FF552B408D892B4330
:10142000CD892B4383800483CD888586028470BD5B
:10143000002C0140003401400040014000440140C4
:10144000004801400A460021018B4FF6F77319400E
:10145000114301837047000070B50024002200236F
:10146000058C4FF6EF7635400584028C8388048B1B
:1014700048F6FF752C404FF6FF452C400D884FF67F
:10148000FF7606EA05252C434FF6DF752A400D89C5
:1014900006EA05152A434D8806EA05152A43154D27
:1014A000A84202D0144DA8421DD14FF67F752A40A4
:1014B0004D894FF6FF7606EA05152A434FF6BF75AC
:1014C0002A408D8806EA05152A434FF6FF352B4042
:1014D0004FF2FF752B408D8906EA85052B43CD8998
:1014E00006EA85052B4383800483CD880587028423
:1014F00070BD0000002C0140003401400A4600216C
:10150000018B4FF2FF7319404FF6FF7303EA02237A
:10151000194301837047000070B5002400220023A6
:10152000058C4FF6FF6635400584028C8388848BDA
:101530004FF68F752C404FF6FC752C400D882C43D0
:101540004FF6FF552A400D894FF6FF7606EA05252E
:101550002A434D8806EA05252A43154DA84202D0A4
:10156000144DA8421DD14FF2FF752A404D894FF608
:10157000FF7606EA05252A434FF6FF352A408D8877
:1015800006EA05252A434EF6FF752B404DF6FF75FA
:101590002B408D8906EA05152B43CD8906EA0515F2
:1015A0002B4383808483CD888587028470BD0000AF
:1015B000002C0140003401400A460021818B4FF687
:1015C000F7731940114381837047000070B5002202
:1015D00000230024058C4EF6FF7635400584038CED
:1015E0008488828B48F6FF752A404FF6FF452A40D3
:1015F0000D884FF6FF7606EA05252A434DF6FF755E
:101600002B400D8906EA05352B434D8806EA053542
:101610002B430B4DA84202D00A4DA84208D14BF6ED
:10162000FF752C408D894FF6FF7606EA85152C4311
:1016300084808283CD88A0F84050038470BD000070
:10164000002C0140003401400A460021818B4FF2FA
:10165000FF7319404FF6FF7303EA02231943818396
:101660007047818670470187704781877047A0F86F
:1016700040107047002202881D4B98420ED01D4B2F
:1016800098420BD0B0F1804F08D01B4B984205D048
:101690001A4B984202D01A4B984204D14FF68F73DE
:1016A0001A404B881A43174B984207D0164B984262
:1016B00004D04FF6FF431A40CB881A4302808B8830
:1016C00083850B8803850A4B98420BD0094B9842BF
:1016D00008D00E4B984205D00D4B984202D00D4BCE
:1016E000984201D10B7A0386012383827047000060
:1016F000002C01400034014000040040000800407C
:10170000000C004000100040001400400040014068
:10171000004401400048014021B1828942F4005256
:10172000828104E082894DF6FF731A4082817047FE
:1017300002460020B1F5007F00D100BF13880B40A6
:101740000BB1012000E00020704700002DE9F047B8
:1017500086B005460E460024A24600BFA1460027DB
:10176000B08900B100BF2F462C8A4CF6FF700440B0
:10177000F08804432C82AC894EF6F3100440B08804
:1017800031890843718908430443AC81AC8A4FF620
:10179000FF400440B0890443AC8201A8FFF79EFCDF
:1017A0001F48874202D1DDF810A001E0DDF80CA04F
:1017B000A88900F4004040B10AEBCA0000EB0A100F
:1017C00031684900B0FBF1F807E00AEBCA0000EB12
:1017D0000A1031688900B0FBF1F86420B8FBF0F022
:1017E00004012009642101FB1089A88900F400404C
:1017F00040B1322000EBC900B0FBF1F000F007006F
:10180000044308E0322000EB09106421B0FBF1F042
:1018100000F00F0004432C8106B0BDE8F087000003
:1018200000380140C1F308028280704700BFFEE724
:101830000FB4054B10B503A9044A029800F004FC4C
:1018400010BC5DF814FB000049320008BC00002009
:10185000490050EAC12018BF04204A0D18BF40F0CB
:10186000010040F2FF72B2EB515F08BF40F002008E
:10187000012808BF052070472DE9F74F144694B0A2
:101880000021C4E902111599079121F00045C949C9
:101890008D4206DC1599C4E9000117B00020BDE8AF
:1018A000F08FC549DFF814A3A9423CDD0799C44E67
:1018B0000029C44FC44A1599534619DDFEF705FEA9
:1018C000554506D0C14AC24BFEF7FFFDC4E90001F1
:1018D0000AE04FF0D352BE4BFEF7F7FD32463B46CF
:1018E000FEF7F3FDC4E9000117B00120BDE8F08F59
:1018F000FEF74AFD554506D0B44AB54BFEF744FD08
:10190000C4E900010AE04FF0D352B14BFEF73CFDB1
:1019100032463B46FEF738FDC4E9000117B04FF0F0
:10192000FF30BDE8F08FAB49A942159978DB21F073
:10193000004183468846A84AA84BFEF7CCFD00220A
:10194000A74BFEF721FDFFF712F90990FEF7B2FE53
:1019500006460F469C4A5346FEF7BDFD43465A468F
:10196000FEF7B6FD80468A46984A994B304639467E
:10197000FEF7B1FD2A0D01250B9242465346FEF7B4
:10198000A7FD032DC4E9000139D00B98C1F30A511A
:10199000401A05EB45111139814230DA9148C346AE
:1019A000784400EB0510CDF80CA00C90D0E9002392
:1019B00030463946FEF78FFD02460B4604910690ED
:1019C00058460399FEF781FD80468A4602460B463B
:1019D00058460399FEF779FD049B069AFEF775FDBC
:1019E00083460C9803913946D0E902233046FEF72E
:1019F00072FD5A46039BFEF768FD6D1CBDE7079814
:101A00000028A2BF099817B0BDE8F08F616881F087
:101A100000416160099817B04042BDE8F08FFFE7D0
:101A200084461598C1F31301C0F30A50A0F2F530B3
:101A30004FEA601800F01F06C6F120001390002046
:101A40000690079041F4801E05206D4676B1664AE7
:101A500008EB00017A4452F8213002EB8101B340D7
:101A60004A68139922FA01F1194305E05F4908EB2E
:101A70000002794451F82210A1FB0E27A1FB0C13A0
:101A80001A449A4234BF0123002303EB070A05EBF3
:101A90008003D3E901B70F448F4234BF01210021F5
:101AA00093448B4411B1934502D903E0934501D28D
:101AB000012100E00021C3E901B7514445F820109D
:101AC000011EA0F10100C1DC0298059F00F1005049
:101AD000800F12900298DDE903568000FEF7EAFDC0
:101AE000834628460D91FFF735F86FF01D02FEF78B
:101AF00087FFCDE90E013046FFF72CF86FF03D026D
:101B0000FEF77EFF80468A463846FFF723F86FF0DF
:101B10005D02FEF775FF0746424653461191FEF7F8
:101B200033FCDDE90E23FEF72FFC5A460D9BFEF732
:101B30002BFC00250E465A4628460D9BFEF7C5FC99
:101B4000DDE90E23FEF7C1FC42465346FEF7BDFC1D
:101B50003A46119BFEF7BCFCDFF898A0244A534696
:101B6000FEF7B9FC07468846234A244B31462846EF
:101B7000FEF7B1FC3A464346FEF706FC07468846A8
:101B80004FF0A842534631462846FEF7A4FC3A4699
:101B90004346FEF7F9FB159A12F0004F04D0129A53
:101BA00081F0004152421292C4E90001129817B02C
:101BB000BDE8F08FFB21E93F7CD90240FB21F93FD2
:101BC0007370032E8A19A33B000040543163621ADC
:101BD00061B4D03DFB21394183C8C96D305FE43F1A
:101BE0000000E03FB4350000303500001235000041
:101BF000182D4454FB21F93D3326A611460B113C08
:101C00002DE9FF4D21F0004807460C46B8F1795FF9
:101C100008DAFEF7ACFF002801BF0020324904B00B
:101C2000BDE8F08D3A46234610461946FEF753FCB0
:101C3000054602462D480E460B460621784400F024
:101C40005DF82A463346FEF746FCDDE9022382466C
:101C50008B4638462146FEF73EFC04460F46524668
:101C60005B4628463146FEF736FC22463B46FEF7E9
:101C70002CFC07468A464FF0FF3228463146FEF7D5
:101C8000BFFE1B4A90450ADA3A465346FEF71DFC52
:101C900004B00022BDE8F04D134BFEF719BC154A05
:101CA0004245A8BFA8F500154FF00004B8BF124D7B
:101CB00022462B46FEF709FC0646884622462B465E
:101CC00000200949FEF701FC04460D463A465346FA
:101CD00030464146FEF7F9FB04B022462B46BDE8EC
:101CE000F04DFEF7F5BB00000000F03FE8320000C9
:101CF0003333D33F0000E93F0000D23F2DE9F041EC
:101D00004F1E00EBC7010446D1E9000115461E46EF
:101D100037F006020DD02A463346FEF7DCFB7F1E65
:101D200004EBC703D3E90023FEF72EFB37F00602CE
:101D3000F1D1022F25D0042F13D0062F18BFBDE8F4
:101D4000F0812A463346FEF7C6FBD4E90A23FEF7A4
:101D50001BFB2A463346FEF7BEFBD4E90823FEF7F9
:101D600013FB2A463346FEF7B6FBD4E90623FEF7FB
:101D70000BFB2A463346FEF7AEFBD4E90423FEF7FD
:101D800003FB2A463346FEF7A6FBD4E90223FEF7FF
:101D9000FBFA2A463346FEF79EFBD4E90023BDE852
:101DA000F041FEF7F1BA00002DE9FF4D054621F0A4
:101DB000004084B00C46B0F1795F0BDA2846FFF79B
:101DC00047FD042808BF00F06FF8284608B02146F8
:101DD000BDE8F08D2A460B461046FEF77CFB064612
:101DE0000F462A462346FEF776FB804626488A465B
:101DF00032463B4605217844FFF780FF8346109822
:101E0000029160B3214A224B40465146FEF763FBE4
:101E1000CDE900015A4640465146029BFEF75BFB66
:101E200082468846DDE906014FF0FF32FEF7E8FD05
:101E300052464346FEF749FB32463B46FEF74BFB14
:101E4000DDE90623FEF741FBDDE90023FEF73DFB5C
:101E500008B02A462346BDE8F04DFEF739BB0B46D5
:101E60005A4630463946FEF736FB084A084BFEF71D
:101E70008BFA42465346FEF72EFB08B02A4623460D
:101E8000BDE8F04DFEF780BA2632000049555555A1
:101E90005555C5BF0122FEF7B3BD002213461046BB
:101EA0001146FEF78ABB0000024A00201107FEF728
:101EB000A7BD000001FDFFFF02E008C8121F08C116
:101EC000002AFAD170477047002001E001C1121FBB
:101ED000002AFBD1704700000149086070470000EC
:101EE000C00000202DE9FF5FDDE90220010DDDF8D3
:101EF00038B0024318D044F61050A1F2FF314143EC
:101F00000D140F98012820D0A5EB0B00401C5FEAB0
:101F1000000A4FF00004474EDFF81C91A0465046DF
:101F200016D5CAF1000728E00F98012443A2012822
:101F300008D0002100980F9BC0E90021C0E90243AE
:101F4000BDE8FF9F6FEA0B01F4E7CBF10000DEE78D
:101F5000074612E0F80707D0224633464046494676
:101F6000FEF7B9FA8046894622463346104619469E
:101F7000FEF7B1FA04460E467F10002FEAD1DDE9E4
:101F80000201BAF1000F42464B4602DAFEF7A3FA0D
:101F900001E0FEF712FB04460E460022284BFEF736
:101FA000AFFD03D84FF0FF30014607E00022254B7C
:101FB00020463146FEF7E8F9FEF78AFD102409E0D5
:101FC000002C0ADB0A220023FEF724FC019B30329E
:101FD0001A55641E50EA0102F2D1641C019AC4F140
:101FE000110314440F9A012A03D0012208430DD192
:101FF0000AE0084304D000204FF0110B0F9080E757
:10200000A3EB0B056D1E0DE05B4504DD4FF00002F8
:1020100005F1010504E003DA4FF00002A5F1010526
:10202000002AECD000980F99C0E90231C0E90045C0
:1020300086E70000000024400000F03F3000000070
:102040000000F0430000E03F2DE9FF4F95B09B46B4
:102050008946064600250FE2252877D10024274629
:10206000F84A0121059400E0044316F8013F203BA3
:1020700001FA03F01042F7D130782A2811D06FF01E
:102080002F033078A0F13002092A16D8059A44F0BF
:10209000020402EB820203EB42021044761C05901C
:1020A000EFE759F8042B0592002A03DA504244F472
:1020B0000054059044F00204761C30782E2816D186
:1020C00016F8010F44F004042A280DD06FF02F02F7
:1020D0003078A0F13003092B09D807EB870302EB16
:1020E0004303C718761CF3E759F8047B761C307855
:1020F0006C280FD006DC4C2817D068280DD06A2831
:1021000014D104E0742810D07A280FD10DE044F4E3
:1021100000140AE044F4801401E044F4401472789E
:10212000824202D104F58014761C761C3078662831
:102130000BD013DC582877D009DC002875D045284F
:10214000F6D04628F4D047281AD19DE118E063283C
:1021500035D0642879D0652812D195E1702873D0E4
:1021600008DC6728F1D069286FD06E280DD06F2861
:1021700006D1B5E073282CD0752875D0782874D096
:102180005A46179990476D1C75E1C4F30250022816
:1021900009D003280DD0D9F8001004280DD00D6007
:1021A00009F1040967E1D9F80010EA17C1E9005202
:1021B000F6E7D9F800100D80F2E70D70F0E719F896
:1021C000041B8DF8001000208DF80100EA46012064
:1021D00003E059F804AB4FF0FF3061074FF0000106
:1021E00002D40DE008F101018846B9420FDA8045BA
:1021F000F8DB1AF808100029F4D108E008F1010111
:1022000088468142FADB1AF808100029F6D10598B1
:102210005B46A0EB080721463846179A00F094FA6F
:10222000284400EB080507E04DE029E10DE01AF82D
:10223000010B5A4617999047B8F10108F7D25B464F
:1022400021463846179A13E142E00A220092C4F36D
:1022500002524FF0000A022A08D059F804CB032A90
:102260004FEAEC710AD00DE029E02AE009F10701FC
:1022700021F00702F2E802C1914609E00FFA8CFC56
:102280004FEAEC71042A03D14FFA8CFC4FEAEC714F
:10229000002907DA0A460021DCF1000C61EB02019B
:1022A0002D2202E0220504D52B228DF804200122E4
:1022B00003E0E20701D02022F7E7904659E00A2127
:1022C00002E010220DE010214FF0000A00910BE017
:1022D00010224FF0000A44F004040827009203E0A3
:1022E00008224FF0000A0092C4F30252022A05D0DD
:1022F00059F804CB0021032A08D009E009F10701AD
:1023000021F00702F2E802C1914605E01FFA8CFCB9
:10231000042A01D10CF0FF0C4FF00008220728D549
:10232000702806D0009B83F0100353EA0A0305D0FF
:102330000EE040228DF80420012208E05CEA010250
:1023400006D030228DF804208DF805000222904638
:10235000009B83F0080353EA0A030AD15CEA0102F6
:1023600001D1620705D530228DF804204FF0010815
:102370007F1E582804D034A003900EA802900DE0D0
:1023800036A0F9E753466046009AFEF743FA8446C2
:102390000398825C0298401E029002705CEA010081
:1023A000F0D1029806A9081A00F1200A600702D5A8
:1023B00024F4803400E00127574502DDA7EB0A0032
:1023C00000E0002000EB0A01009005984144401A0B
:1023D0000590E00306D45B462146179A059800F065
:1023E000B3F90544002706E001A85A46C05D1799D5
:1023F00090476D1C7F1C4745F6DBE0030CD55B4620
:102400002146179A059800F09FF9054404E0302012
:102410005A46179990476D1C0099481E0090002954
:10242000F5DC08E0029802995A460078491C0291AE
:10243000179990476D1CBAF10001AAF1010AF1DC6D
:1024400065E1000009280100303132333435363778
:1024500038396162636465660000000030313233F0
:102460003435363738394142434445460000000090
:1024700000F058F90544761C307800287FF4ECAD64
:1024800019B02846BDE8F08F620700D4062709F18D
:10249000070222F0070CFCE80223E14603F00048A3
:1024A0005FEA080C02D00FF2702C0DE05FEA045CCA
:1024B00002D50FF2682C07E05FEAC47C02D00FF26D
:1024C000602C01E0AFF2700C4FF0FF3823F00043B6
:1024D000CDF850C065280CD006DC452809D0462828
:1024E0001DD047283DD13DE0662818D067287ED111
:1024F00038E00021112F01DB112000E0781CCDE92C
:10250000000106A90EA8FFF7EDFCDDE90F010E9A08
:1025100003910021009207F1010A04914DE04FF070
:1025200000400097CDE9011006A90EA8FFF7DAFCDC
:10253000DDE90F0203920E9B11990022DDF80CA039
:102540000093049211B9791C00EB010AB7EB0A0061
:1025500004D4C0F1FF3007F1010A0490AAEB070090
:10256000019044E0012F00DA01270021112F01DD45
:10257000112000E03846CDE9000106A90EA8FFF7BA
:10258000B1FCDDE90F010E9A039100210491009244
:10259000BA4621070CD40399514500DA8A46BAF1AC
:1025A000010F05DD009AAAF10101515C302908D024
:1025B000B84202DA10F1040F06DA0121CDE9011068
:1025C00015E0AAF10101E9E7002805DC04990144BE
:1025D0000491AAEB000102E0411C514500DD8A464E
:1025E0000499401A401C01904FF0004002902007CF
:1025F00004D40198504501DBCDF8048000208DF80B
:102600004F0002980DF14F07B0F1004F25D02B205D
:102610000E9002984FF0020800280CDA4042029017
:102620002D200E9007E00A210298FEF7DDF83031E8
:10263000029007F8011DB8F10001A8F10108F2DCD1
:1026400002980028EFD1791E0E980870307800F0BB
:10265000200040F0450007F8020D12A8C01B00F151
:1026600007081498007800B1012000EB0A010198D6
:1026700001EBE07105984144401A401E0590E003CB
:1026800006D45B462146179A059800F05DF805448C
:102690001498007818B15A46179990476D1CE003BA
:1026A00024D55B462146179A059800F04DF805445D
:1026B0001CE00498002807DBDDE90301884203DD04
:1026C0000098405C179901E0179930205A469047CE
:1026D000049805F10105401C04900198401E0190EA
:1026E00004D12E205A46179990476D1CBAF100016B
:1026F000AAF1010ADDDC05E017F8010B5A4617992B
:1027000090476D1CB8F10001A8F10108F4DC5B46AC
:102710002146179A0598ABE62D0000002B0000001B
:10272000200000002DE9F041044600251E46174612
:10273000880404D405E039462020B0476D1C641E8F
:10274000F9D52846BDE8F0812DE9F0410446002581
:102750001E469046C80301D5302700E02027880494
:1027600004D505E041463846B0476D1C641EF9D5D6
:102770002846BDE8F08110B5044600212046FEF74A
:102780001FF802D284F0004010BD2046FCE7000094
:102790002DE9F34F85B0894649460598FDF7B6FD0A
:1027A00004904846FFF7E7FF05460598FFF7E3FF6B
:1027B00006462946FEF704F83AD237480499FDF751
:1027C00073FD01900499FDF76FFD80464FF07E5137
:1027D000FDF712FD0746FDF7C4FF05460E460498B7
:1027E000FDF7BFFF07464FF066322C4BFDF773FE37
:1027F0002A463346CDE90201FDF7DFFE8246FDF7AA
:10280000C3FF044600214846FDF7DAFF3FD200210E
:102810000598FDF7D5FF05D221492046FDF73EFD7D
:10282000044634E01E492046FDF7E6FC04462EE04F
:1028300004990846FDF738FD83461749FDF7DCFC8F
:102840008246FDF78EFFCDE900010498FDF789FF70
:1028500082464FF06632114BFDF73DFE0746DDE93B
:102860000023FDF7AAFE054600220E4BFDF730FEC1
:10287000CDE90201FDF788FF044600210598FDF728
:102880009FFF04D206492046FDF708FD0446204676
:1028900007B0BDE8F08F0000295C8F3E66A64C4073
:1028A00000003443008056400FB42DE9F04F9BB038
:1028B000DDE92A6567481A90DFF89C91674819900E
:1028C0006748189042F210701490002467E024A822
:1028D00050F8240080F00048624850F82410404628
:1028E000FDF78AFC07464946FDF7DEFC824624AA2E
:1028F00052F8241056F82400FDF7D0FC80464846D4
:102900001999FDF703FD41461390FDF7CDFC0746ED
:102910001899FDF7C9FC834659465046FDF76CFCF3
:102920000746514850F824103846FDF765FC15A9B4
:1029300041F8240027AA52F8241015AA52F82400BE
:10294000FDF7ACFC179017991A98FDF7ADFC0746F8
:10295000FDF7C1FE00B225F8140024A850F82400A9
:10296000404941F8240035F9140042F210718842C0
:1029700003DD084625F814000FE035F914003B4943
:10298000884204DA4DF6F00025F8140005E015A899
:1029900050F82400344941F82400601CC4B2022CD1
:1029A00095DB24AA5169B068FDF778FC1790179958
:1029B0001A98FDF779FC0746FDF78DFE00B2A88056
:1029C000F068FDF788FE00B2E880F068FDF7C9FE08
:1029D00007468846B068FDF7C4FECDE9120170686D
:1029E000FDF7BFFECDE910013068FDF7BAFECDE975
:1029F0000E011FA0CDE90A780C901EA00890DDE919
:102A00001201CDE906011DA00490DDE91001CDE918
:102A100002011AA000901BA0DDE90E23FEF708FFBB
:102A200024A2B5F9060029A3B5F90410CDE90113D4
:102A3000CDE9030225A00090B5F90230B5F90010E8
:102A400022A226A0FEF7F4FE1BB0BDE8F00F5DF851
:102A500014FB00000000A041713D624129CB103EF3
:102A60000AD7A33CAC000020B4000020F0D8FFFF40
:102A70000A0000002020202020200000202020200C
:102A800000000000526566657220205369676E6120
:102A90006C20282D2D2D2D293A20252E32662573C8
:102AA000252E32662573252E32662573252E326635
:102AB00025730000202020202020202020202020FE
:102AC00020202020202020200A000000202020207C
:102AD0002020202020202020202020004F757470EE
:102AE0007574205369676E616C20282D2D2D2D295A
:102AF0003A20256425732564257325642573256490
:102B0000257300002DE9F04F9DB005460E46DFF815
:102B1000789100245D480C90304601F03DFF2C2256
:102B200006F110016846FDF755FB96E80F0001F02D
:102B3000FDFC13E006F11C0151F824000C99FDF78F
:102B4000B3FB19A941F8240006F11C0050F8241029
:102B500005F10C0040F82410601CC4B2032CE9DB22
:102B600010A919A800F0A6F90DAA494910A801F06A
:102B700023F806F1100001F0EDFB00241CE04946AB
:102B80004FF07E50FDF738FB80460DA850F824101A
:102B90004846FDF789FB824606F1100050F82410E4
:102BA0005046FDF729FB07464146FDF7AFFB384984
:102BB00041F82400601CC4B2032CE0DB344A916865
:102BC0009068FDF771FB324A099011681068FDF7B3
:102BD0006BFB08900999FDF70FFB0A90FDF7C1FD0B
:102BE000824602F0A1F80746FDF7CEFD28490B907A
:102BF00048680B99FFF7CCFD2860254A916810685A
:102C0000FFF7C6FD6860A868FDF7ABFD074688467C
:102C10006868FDF7A6FDCDE90A012868FDF7A1FD6A
:102C200082460B461BA0CDE9067808901CA00490B4
:102C3000DDE90A01CDE902011BA0524600901DA06A
:102C4000FEF7F6FD6869FDF78CFD074688462869A2
:102C5000FDF787FDCDE90A01E868FDF782FD8246B0
:102C60000B460CA0CDE9067808900DA00490DDE994
:102C70000A01CDE902010CA05246009018A0FEF70F
:102C8000D7FD1DB0BDE8F08FCDCC4C3E0AD7A33E9A
:102C9000A00000202020202020202020200A00004A
:102CA0002020202020200000202020202020202064
:102CB0002000000045756C6572202020416E676C15
:102CC00065202864656720293A20252E3266257301
:102CD000252E32662573252E3266257300000000EE
:102CE000416E676C65202020526174652020286445
:102CF000707320293A20252E32662573252E3266E0
:102D00002573252E326625730000000000B5244B84
:102D100021F0004287B09A42DCBF0022134629DD31
:102D2000204B9A4208D140B94FF00100FFF7D4F888
:102D3000FFF7B3F807B000BD03DBFFF7ABF807B050
:102D400000BD02AAFEF798FD10F0030104BF0DF1CB
:102D5000080C9CE80F000DD0012001290ED002299B
:102D600014D00DF1080C00909CE80F00FFF71CF840
:102D700007B000BDFEF744FF07B000BD0DF1080C21
:102D800000909CE80F00FFF70FF805E00DF1080C2C
:102D90009CE80F00FEF734FF07B081F0004100BD52
:102DA000FB21E93F0000F07F10B502A0FEF740FDD7
:102DB00010BD000044656275672D757361727431D2
:102DC00020697320776F726B696E670A00000000DC
:102DD0001FB501218803FEF771F94FF4E13000902F
:102DE0000020ADF80C000C20ADF80A000020ADF872
:102DF0000800ADF80600ADF8040069460348FEF788
:102E0000A5FC01210148FEF787FC1FBD00380140E9
:102E100008B501210420FEF751F903208DF80200C6
:102E200018208DF803004FF40070ADF800006946DB
:102E30000748FDF7C0FE4FF48060ADF800000420A5
:102E40008DF8030069460248FDF7B5FE08BD000095
:102E50000008014010B501F0ADFFFFF7A5FF10BD60
:102E60000021002200BF07E0002201E0531C9AB2BB
:102E70008242FBDB4B1C99B28142F5DB7047014675
:102E800001EBC1024FF0E0235A6101221A610022D6
:102E90009A6100BF4FF0E022106900F001021AB100
:102EA00000F48032002AF5D000224FF0E0231A61AE
:102EB0009A6170472DE9F04F8DB081460C46D9F8E4
:102EC0000000FDF74EFC0746C94ACA4BFDF703FB5D
:102ED0000546FDF759FC0C90D9F80400FDF741FCBC
:102EE0000746C34AC34BFDF7F6FA0546FDF74CFC0F
:102EF0000B90D9F80800FDF734FC0746BC4ABD4BDF
:102F0000FDF7E9FA0546FDF73FFC0A900A98FDF740
:102F100028FC0546FFF7FAFE074688460B98FDF7A2
:102F200020FC0546FFF7F2FE3A464346CDE908018C
:102F3000FDF7D1FA8246FDF727FC20600A98FDF7DD
:102F400010FC054601F082FD074688460B98FDF708
:102F500008FC0546FFF7DAFE82463A464346FDF78F
:102F6000BAFACDE90801FDF70FFC60600B98FDF798
:102F7000F8FB074601F06AFD81F000410546FDF7C8
:102F800003FCA0600A98FDF7ECFB054601F05EFD2E
:102F9000074688460C98FDF7E4FB0546FFF7B6FEAA
:102FA00082463A464346FDF796FACDE906010A986D
:102FB000FDF7D7FB0546FFF7A9FECDE902010B9807
:102FC000FDF7CFFB054601F041FD074688460C980A
:102FD000FDF7C7FB054601F039FD82463A464346F8
:102FE000FDF779FACDE90001DDE90223FDF773FA77
:102FF000CDE90401DDE90623FDF767FACDE9080113
:10300000FDF7C2FBE0600A98FDF7ABFB0546FFF752
:103010007DFE074688460C98FDF7A3FB0546FFF7A3
:1030200075FE82463A464346FDF755FACDE906015C
:103030000A98FDF796FB054601F008FDCDE902016F
:103040000B98FDF78EFB054601F000FD074688460C
:103050000C98FDF786FB054601F0F8FC82463A46DF
:103060004346FDF738FACDE90001DDE90223FDF71B
:1030700032FACDE90401DDE90623FDF785F9CDE952
:103080000801FDF781FB20610B98FDF76AFB0546FF
:10309000FFF73CFECDE908010C98FDF762FB054601
:1030A00001F0D4FC8246DDE90823FDF714FA074657
:1030B000FDF76AFB60610A98FDF753FB054601F0D6
:1030C000C5FC074688460C98FDF74BFB054601F00A
:1030D000BDFC82463A464346FDF7FDF9CDE90601BF
:1030E0000A98FDF73EFB0546FFF710FECDE9020109
:1030F0000B98FDF736FB054601F0A8FC074688460D
:103100000C98FDF72EFB0546FFF700FE82463A4677
:103110004346FDF7E0F9CDE90001DDE90223FDF7C3
:10312000DAF9CDE90401DDE90623FDF72DF9CDE952
:103130000801FDF729FBA0610A98FDF712FB05467F
:10314000FFF7E4FD074688460C98FDF70AFB0546A5
:1031500001F07CFC82463A464346FDF7BCF9CDE9D6
:1031600006010A98FDF7FDFA054601F06FFCCDE96E
:1031700002010B98FDF7F5FA054601F067FC0746DA
:1031800088460C98FDF7EDFA0546FFF7BFFD82462D
:103190003A464346FDF79FF9CDE90001DDE90223F8
:1031A000FDF799F9CDE90401DDE90623FDF78DF975
:1031B000CDE90801FDF7E8FAE0610B98FDF7D1FAD7
:1031C0000546FFF7A3FDCDE908010C98FDF7C9FA04
:1031D0000546FFF79BFD0746DDE90823FDF77BF970
:1031E0008246FDF7D1FA20620DB0BDE8F08F0000F5
:1031F000EC51B81E85EB913F2DE9F05F04464FF08E
:103200007F594FF07C512046FDF74EF88246254607
:103210002E460C48A0EB6606354629465046FDF77B
:1032200043F883462946FDF73FF880464946FDF7B7
:1032300038F807462946FDF737F805462846BDE821
:10324000F09F0000DF59375F70B504460D46E1B2CC
:103250000548FEF7E7FA00BF80210348FEF768FA49
:103260000028F9D0204670BD003801402DE9F04714
:1032700005460E4600244FF07F5705F1100000F080
:1032800090F905F11C0000F0DDF905F12C0000F0CB
:1032900029FA00F081FA8046FDF7FEF9A863284676
:1032A00001F086F800BF1BE056F8241005F110026B
:1032B00052F82400FCF7F2FF05F1100141F8240058
:1032C00006F10C0252F8241005F11C0252F82400F9
:1032D000FCF7E4FF05F11C0141F82400601CC4B2B6
:1032E000032CE1DB002429E0384951F82400394659
:1032F000FDF70CF88046354850F824104046FCF79E
:10330000D0FF324941F8240005F1100151F82400A2
:103310003946FCF7FBFF80462C4850F82410404605
:10332000FCF76AFF294941F82400084650F82410A8
:1033300005F1100040F82410601CC4B2032CD3DB4C
:1033400000243FE006F1180151F824002049FDF760
:1033500041FA07D306F1180151F824001D49FDF781
:103360002FFA06D2022C04D04FF47A7025F81400FC
:1033700026E006F1180151F824001549FDF72AFA54
:1033800007D306F1180151F824001249FDF718FA85
:1033900005D2022C03D1002025F8140010E035F8E6
:1033A0001400FDF782F9814606F1180050F8241048
:1033B0004846FCF773FF8046FDF7A6F925F8140090
:1033C000601CC4B2042CBDDBBDE8F08728000020DF
:1033D00000004842000048C270B50446A0881E287C
:1033E00003DD00202149088070BDE58840F2B270FD
:1033F00085421BDD1D48B0F900000A2806DA1B488B
:103400000088401C00B2194908802CE01748008849
:103410000A2828D10020154908804FF480711448EB
:10342000FDF75FFC0120134908601CE01E2D1ADA2D
:103430000E48B0F900000A2806DA0C480088401C43
:1034400000B20A4908800EE0084800880A280AD11C
:103450000020064908804FF480710548FDF73FFCC5
:1034600000200449086000BFBEE7000024000020DF
:10347000000C01402000002008B50020009001222F
:103480006946752000F0BCFA9DF80000682801D15B
:10349000012008BD0020FCE710B520216A2000F0C3
:1034A00005FB0821242000F001FB1321342000F04B
:1034B000FDFA0121672000F0F9FA1E21252000F015
:1034C000F5FA0021262000F0F1FA0421632000F033
:1034D000EDFA8121272000F0E9FA1E21252000F0D5
:1034E000E5FA0121262000F0E1FAE021632000F056
:1034F000DDFA8121272000F0D9FA1E21252000F0D5
:10350000D5FA0221262000F0D1FA0021632000F034
:10351000CDFA8121272000F0C9FA10BD002000213A
:1035200000BF08E0002101E04A1C91B2B1F57A7FAA
:10353000FADB421C90B2B0F57A7FF3DB704710B52E
:1035400020216A2000F0B2FA0821242000F0AEFA0F
:103550009E21252000F0AAFA0321262000F0A6FAD9
:103560008621272000F0A2FA10BD10B500F0D0FC93
:10357000FFF7D4FF00216B2000F098FA07211920F3
:1035800000F094FA06211A2000F090FA00211C2085
:1035900000F08CFA18211B2000F088FAFFF76CFF6E
:1035A00010BD7FB50446062269463B2000F028FA8C
:1035B0009DF801009DF8001040EA012000B2ADF82E
:1035C00008009DF803009DF8021040EA012000B2B7
:1035D000ADF80A009DF805009DF8041040EA0120AE
:1035E00000B2ADF80C00BDF90800FDF755F806462D
:1035F0004FF08041FCF758FE05464FF08E41FCF736
:1036000085FE2060BDF90A00FDF746F806464FF03A
:103610008041FCF749FE05464FF08E41FCF776FEEF
:103620006060BDF90C00FDF737F806464FF08041A9
:10363000FCF73AFE05464FF08E41FCF767FEA060AE
:103640007FBD00007FB5044606226946432000F096
:10365000D7F99DF801009DF8001040EA012000B262
:10366000ADF808009DF803009DF8021040EA012023
:1036700000B2ADF80A009DF805009DF8041040EA7C
:10368000012000B2ADF80C00BDF90800FDF704F808
:1036900006461349FCF708FE05464FF08E41FCF73D
:1036A00035FE2060BDF90A00FCF7F6FF06460C491E
:1036B000FCF7FAFD05464FF08E41FCF727FE6060EF
:1036C000BDF90C00FCF7E8FF06460549FCF7ECFDE8
:1036D00005464FF08E41FCF719FEA0607FBD00004B
:1036E0000000FA442DE9FF470446062269464920B6
:1036F00000F086F99DF801009DF8001040EA0120D5
:1037000000B2ADF808009DF803009DF8021040EAF1
:10371000012000B2ADF80A009DF805009DF80410E4
:1037200040EA012000B2ADF80C00BDF90800FCF73A
:10373000B3FF8146FDF715F807464FF06632154B8B
:10374000FCF7C9FE0546FDF71FF82060BDF90A0029
:10375000FCF7A2FF8146FDF704F807464FF06632FA
:103760000C4BFCF7B8FE0546FDF70EF86060BDF99E
:103770000C00FCF791FF8146FCF7F3FF07464FF082
:103780006632044BFCF7A7FE0546FCF7FDFFA06080
:10379000BDE8FF87666611402DE9F04F85B000F067
:1037A0008CF802A9A22000F0B5F80DF10A01A420BE
:1037B00000F0B0F803A9A62000F0ACF80DF10E015E
:1037C000A82000F0A7F804A9AA2000F0A3F80DF1A2
:1037D0001201AC2000F09EF801A9482000F07CF80E
:1037E0006946582000F078F8BDF810000099A1EB68
:1037F0000024BDF812000022E117A0FB043C02FBEC
:1038000004C200FB0120410241EAD3504FF4FA61A7
:103810004018BDF80A104FF000004FEA004040EA9F
:1038200011404FEA0142BDF80E104FF000034FEA7D
:10383000E47AA1FB04CB03FB04B301FB0A334FEA98
:10384000DC1141EA4361551840EBE316BDF808105E
:103850004FF000004FEAC03040EA51404FEAC13219
:10386000BDF80C104FF000034FEAE47CA1FB04AB61
:1038700003FB04B301FB0C334FEA1A2141EA036155
:10388000571840EB23284FF000013B460198A0FB5E
:10389000032A01FB07A100FB08114FEA525040EA3E
:1038A000C1224FEA6150511B60EB0600420442EA1C
:1038B000D139484605B0BDE8F08F10B500F040FCA6
:1038C0004FF47A70FFF7CCFA1E2000F06BF84FF43B
:1038D0007A70FFF7C5FA10BD38B505460C46284684
:1038E00000F060F84FF49670FFF7BAFA002000F08D
:1038F00059F80321684600F025F89DF800000004FF
:103900009DF8011040EA01209DF802100843206054
:1039100038BD000038B505460C4609A00068009087
:10392000284600F03FF80221684600F00BF89DF8A9
:1039300001009DF8001040EA0120208038BD000001
:103940000101000070B504460D464FF4005600BF5B
:1039500000F09EFCEF2000F065FC06E026B9012196
:103960000EA000F0E1F870BD761E00F0CDFC00283E
:10397000F4D10FE0012D06D1002000F025FC2070CD
:1039800000F0A4FC04E0012000F01EFC2070641C88
:10399000681EC5B2002DEDD10120E4E74D53353648
:1039A0003131000070B505464FF4005400F070FC52
:1039B000EE2000F037FC06E024B901210EA000F053
:1039C000B3F870BD641E00F09FFC0028F4D14FF4E2
:1039D0000054284600F026FC06E024B9022106A087
:1039E00000F0A2F8EDE7641E00F08EFC0028F4D190
:1039F00000F06CFC0120E4E74D5335363131000016
:103A00002DE9F04107460D4616464FF4005400F0EC
:103A100023FBD02000F0F0FA07E02CB9012121A00F
:103A200000F082F8BDE8F081641E00F049FB002838
:103A3000F3D14FF40054384600F0DEFA06E024B922
:103A4000022118A000F070F8ECE7641E00F038FBCB
:103A50000028F4D14FF4005400F0FEFAD12000F019
:103A6000CBFA06E024B903210EA000F05DF8D9E7F7
:103A7000641E00F025FB0028F4D10FE0012E06D1D2
:103A8000002000F08FFA287000F000FB04E0012015
:103A900000F088FA28706D1C701EC6B2002EEDD1A1
:103AA0000120BFE74D5055363035300070B5064621
:103AB0000D464FF4005400F0CFFAD02000F09CFAED
:103AC00006E024B9012116A000F02EF870BD641E96
:103AD00000F0F6FA0028F4D14FF40054304600F01C
:103AE0008BFA06E024B902210DA000F01DF8EDE7E5
:103AF000641E00F0E5FA0028F4D1284600F07CFAB4
:103B000006E024B9032106A000F00EF8DEE7641EEB
:103B100000F0D6FA0028F4D100F0B8FA0120D5E779
:103B20004D5055363035300070B504460D462A46A6
:103B3000214602A0FDF77CFE002070BD25732049C0
:103B40003243B5C8B4FDB3ACCAB1A3A16572726FFC
:103B5000725F636F6465203D25640A00AAB000208F
:103B60000F90109000F025FF1BA911A800F052FE45
:103B700021E011A91BA8FFF779FB1BA909A8FEF7F3
:103B8000C1FF05A91BA800F029FF0FA805A9CDE9D1
:103B90000210DDE90D01CDE9000109A80FC8FEF70B
:103BA00083FE1BA90FA800F053F81BA8FFF714FC15
:103BB0001DA801F005F9DCE72DE9F04704460D46A4
:103BC0001646A968A068FCF76FFB804669686068C4
:103BD000FCF76AFB814629682068FCF765FB824692
:103BE0004946FCF709FB07464146FCF705FB3060F8
:103BF000A9686069FCF758FB804669682069FCF792
:103C000053FB81462968E068FCF74EFB8246494633
:103C1000FCF7F2FA07464146FCF7EEFA7060A96835
:103C2000206AFCF741FB80466968E069FCF73CFBD1
:103C300081462968A069FCF737FB82464946FCF7B4
:103C4000DBFA07464146FCF7D7FAB060BDE8F087DB
:103C50002DE9F0478CB004460D460026B4F9060065
:103C6000FCF728FD81468A46B4F90400FCF722FDE2
:103C70000746854A854BFCF72EFCCDE90601B4F9D1
:103C80000200FCF717FD07467F4A814BFCF723FC37
:103C9000CDE90201B4F90000FCF70CFD07467A4AB1
:103CA0007A4BFCF718FCCDE90001DDE90223FCF7B3
:103CB0006BFBCDE90401DDE90623FCF765FB4A4611
:103CC0005346CDE90801FCF75FFBCDE90A01FCF79B
:103CD0002FFD2881B4F90600FCF7ECFC81468A46EA
:103CE000B4F90400FCF7E6FC0746674A684BFCF7AA
:103CF000F2FBCDE90601B4F90200FCF7DBFC074654
:103D0000614A634BFCF7E7FBCDE90201B4F900001F
:103D1000FCF7D0FC07465C4A5D4BFCF7DCFBCDE9C9
:103D20000001DDE90223FCF72FFBCDE90401DDE909
:103D30000623FCF729FB4A465346CDE90801FCF768
:103D400023FBCDE90A01FCF7F3FC6881B4F9060016
:103D5000FCF7B0FCCDE90801B4F90400FCF7AAFCBB
:103D60000746494A494BFCF7B6FBCDE90401B4F9D3
:103D70000200FCF79FFC0746434A444BFCF7ABFBB1
:103D800081468A46B4F90000FCF794FC07463E4A97
:103D90003F4BFCF7A0FB4A465346CDE90001FCF738
:103DA000F3FACDE90201DDE90423FCF7EDFACDE9F0
:103DB0000601DDE90823FCF7E7FACDE90A01FCF783
:103DC000B7FCA881B4F90600FCF774FCCDE9080142
:103DD000B4F90400FCF76EFC07462B4A2C4BFCF7A9
:103DE0007AFBCDE90401B4F90200FCF763FC074655
:103DF000254A264BFCF76FFBCDE90001B4F9000022
:103E0000FCF758FC0746204A204BFCF764FB814630
:103E1000DDE90023FCF7B8FACDE90201DDE904236E
:103E2000FCF7B2FACDE90601DDE90823FCF7ACFAAC
:103E3000CDE90A01FCF77CFCE88100BF0EE005F14A
:103E4000080030F81600B0F5FA6F05DD4FF4FA619E
:103E500005F1080020F81610701CC6B2042EEEDB27
:103E600029890CA0FDF7E4FC69890EA0FDF7E0FCB0
:103E7000A98910A0FDF7DCFCE98912A0FDF7D8FCA8
:103E80000CB0BDE8F08700007B14AE47E17A94BF28
:103E9000E17A943F317374203A2025642020200A6F
:103EA00000000000326E64203A2025642020200AA1
:103EB00000000000337264203A2025642020200A8C
:103EC00000000000347468203A2025642020200A75
:103ED0000000000010B540210C48FCF700FF8021D5
:103EE0000A48FCF7FEFE0120FEF7C9FF80210748C3
:103EF000FCF7F5FE0120FEF7C2FF40210348FCF766
:103F0000F0FE0120FEF7BBFF10BD0000000C0140D9
:103F100008B501210820FDF7D1F82020ADF80000F8
:103F200001208DF8020048208DF8030069460D48F5
:103F3000FCF741FE14208DF803008020ADF800004E
:103F400069460848FCF737FE4020ADF80000142011
:103F50008DF8030069460348FCF72DFE00F096F843
:103F600008BD0000000C014010B580210C48FCF792
:103F7000B6FE40210A48FCF7B4FE0120FEF77FFFA1
:103F800080210748FCF7ADFE0120FEF778FF802175
:103F90000348FCF7A4FE0120FEF771FF10BD0000EE
:103FA000000C014070B505460024002618E06006AC
:103FB000040E80210F48FCF794FE0120FEF75FFFFE
:103FC00040210C48FCF782FE08B1601CC4B280217D
:103FD0000848FCF784FE0120FEF751FF701CC6B2B2
:103FE000082EE4DB15B9FFF7BFFF01E0FFF772FF12
:103FF000204670BD000C014070B50446002526E047
:1040000004F0800020B140211248FCF76AFE03E072
:1040100040211048FCF763FE0120FEF730FF8021AD
:104020000C48FCF75EFE0120FEF729FF80210948BD
:10403000FCF755FE072D03D140210648FCF751FE41
:104040006006040E0120FEF71AFF681CC5B2082D99
:10405000D6DB70BD000C014010B540210A48FCF7CA
:1040600040FE80210848FCF73CFE0420FEF707FFD5
:1040700040210548FCF733FE0420FEF700FF8021B5
:104080000148FCF72CFE10BD000C014010B580214A
:104090000A48FCF724FE40210848FCF720FE0420D3
:1040A000FEF7EDFE80210548FCF71BFE402103488A
:1040B000FCF717FE0420FEF7E2FE10BD000C0140E5
:1040C00010B540210E48FCF70CFE0120FEF7D7FE8C
:1040D00080210B48FCF705FE0120FEF7D0FE4021B1
:1040E0000748FCF7F3FD08B1012400E0002480211B
:1040F0000348FCF7F4FD0120FEF7C1FE204610BD89
:10410000000C014010B54FF480610C48FCF7E7FD4E
:104110004FF400610948FCF7E2FD0220FEF7AFFE14
:104120004FF480610548FCF7DCFD0220FEF7A7FE96
:104130004FF480610148FCF7D2FD10BD000C014036
:1041400008B501210820FCF7B9FF48208DF80300CD
:1041500001208DF802004002ADF8000069460848D1
:10416000FCF729FD14208DF803004FF44060ADF8F2
:10417000000069460248FCF71EFD00F0A7F808BDE4
:10418000000C014010B54FF480610E48FCF7A7FD0C
:104190004FF400610B48FCF7A4FD0120FEF76FFE11
:1041A0004FF480610748FCF79CFD0120FEF767FE95
:1041B0004FF480610348FCF792FD0120FEF75FFE9B
:1041C00010BD0000000C014070B50546002400261B
:1041D0001BE06006040E4FF480611148FCF781FD7E
:1041E0000220FEF74CFE4FF400610D48FCF76EFD17
:1041F00008B1601CC4B24FF480610948FCF76FFD40
:104200000120FEF73CFE701CC6B2082EE1DB15B99A
:10421000FFF7B8FF01E0FFF775FF204670BD000013
:10422000000C014070B5044600252BE004F080002E
:1042300028B14FF400611548FCF753FD04E04FF43A
:1042400000611248FCF74BFD0120FEF718FE4FF409
:1042500080610E48FCF745FD0120FEF710FE4FF48B
:1042600080610A48FCF73BFD072D04D14FF4006143
:104270000648FCF736FD6006040E0120FEF7FFFD40
:10428000681CC5B2082DD1DB70BD0000000C0140D8
:1042900010B54FF400610C48FCF723FD4FF480612A
:1042A0000948FCF71EFD0420FEF7E9FD4FF400610C
:1042B0000548FCF714FD0420FEF7E1FD4FF4806192
:1042C0000148FCF70CFD10BD000C014010B54FF487
:1042D00080610C48FCF703FD4FF400610948FCF7CE
:1042E000FEFC0420FEF7CBFD4FF480610548FCF78F
:1042F000F8FC4FF400610348FCF7F3FC0420FEF7E0
:10430000BEFD10BD000C014010B54FF40061104817
:10431000FCF7E7FC0120FEF7B2FD4FF480610C488A
:10432000FCF7DFFC0120FEF7AAFD4FF4006108480E
:10433000FCF7CCFC08B1012400E000244FF48061BC
:104340000348FCF7CCFC0120FEF799FD204610BD88
:10435000000C01402DE9F0410546002600240CE048
:1043600055F8241055F82400FBF79EFF804631468F
:10437000FBF742FF0646601CC4B2032CF0DB30465C
:10438000FEF73AFF0746002408E055F824003946B6
:10439000FBF78AFF45F82400601CC4B2032CF4DB51
:1043A000BDE8F08110B500F0FFF900F0D1F910BDC3
:1043B0002DE9FC4104469DF800109DF8012041EADA
:1043C0000220FCF769F980464FF08B41FBF79EFF16
:1043D00007464349FBF768FF06464149FBF70CFFD8
:1043E0000546FCF791F920809DF802109DF8032006
:1043F00041EA0220FCF750F980464FF08B41FBF771
:1044000085FF07463649FBF74FFF06463449FBF761
:10441000F3FE0546FCF778F960809DF804109DF8DE
:10442000052041EA0220FCF737F980464FF08B4126
:10443000FBF76CFF07462A49FBF736FF064628497B
:10444000FBF7DAFE0546FCF75FF9A0809DF8061041
:104450009DF8072041EA0220FCF71EF980464FF044
:104460008B41FBF753FF07461D49FBF71DFF06462F
:104470001B49FBF7C1FE0546FCF746F9E0802088A2
:10448000A0F57A704FF6FF7101EA40002080608845
:10449000A0F57A7001EA40006080A088A0F57A70EB
:1044A00001EA4000A080E088A0F57A7001EA4000AF
:1044B000E08021880BA20DA0FDF7BAF9618809A25E
:1044C0000EA0FDF7B5F9A18806A210A0FDF7B0F97E
:1044D000E18804A211A0FDF7ABF9BDE8FC81000062
:1044E00000007A442020200A00000000522D2D6197
:1044F000696C3A2025642573000000004C2D2D6561
:104500006C653A202564257300000000522D2D743F
:1045100068723A2025642573000000004C2D2D722E
:1045200075643A2025642573000000000FB42DE95E
:10453000F04389B01698FCF714F904460D46159817
:10454000FCF70FF906460F461498FCF70AF9804667
:1045500018A0CDE90645089018A0CDE9026704909F
:1045600016A042460B46009015A0FDF761F9199878
:10457000FCF7F7F804460D461898FCF7F2F80646E3
:104580000F461798FCF7EDF8804618A0CDE90645D0
:10459000089018A0CDE90267049008A042460B4697
:1045A000009016A0FDF744F909B0BDE8F0035DF8EE
:1045B00014FB00002020200A000000002020200022
:1045C0004D50553630353020416363656C202820CE
:1045D000672020293A20252E32662573252E326643
:1045E0002573252E32662573000000002020202030
:1045F00020200A0020202020000000004D505536C9
:10460000303530204779726F20202864707320295C
:104610003A20252E32662573252E32662573252EE7
:104620003266257300000000F0B587B00024002535
:104630000026002701210846FCF730FD0020ADF8D8
:104640001600ADF8120040F65F10ADF814004720D8
:10465000ADF8100000208DF8180004A94FF080403C
:10466000FDF708F86020ADF800000120ADF8020069
:104670000020ADF80800ADF8064069464FF08040D4
:10468000FCF794FEADF8065069464FF08040FCF709
:10469000E3FEADF8066069464FF08040FCF73CFF52
:1046A000ADF8067069464FF08040FCF78FFF082197
:1046B000C806FCF7C7FE0821C806FCF71FFF082143
:1046C000C806FCF779FF0821C806FCF7BDFF0121E9
:1046D0008807FCF75FFE07B0F0BD000008B50121B8
:1046E0000420FCF7EBFC18208DF8030003208DF864
:1046F00002000120ADF8000069461448FCF75BFA9F
:104700000220ADF8000069461048FCF754FA042076
:10471000ADF8000069460D48FCF74DFA0820ADF8E9
:10472000000069460948FCF746FA01210748FCF7F2
:10473000D6FA02210548FCF7D2FA04210348FCF717
:10474000CEFA08210148FCF7CAFA08BD000801406A
:1047500000B585B001210803FCF7B0FC1020ADF8CE
:104760000C000020ADF80800ADF806000720ADF8F9
:1047700010000020ADF80400ADF80000ADF80E0008
:104780004FF48270ADF802004FF40070ADF80A00EB
:1047900069460448FCF726FD01210248FCF708FDA4
:1047A00005B000BD0030014008B501210420FCF730
:1047B00085FC01210846FCF781FC18208DF80300D8
:1047C00001208DF80200E020ADF8000069460F4896
:1047D000FCF7F1F910208DF80300ADF800006946F0
:1047E0000A48FCF7E8F90220ADF8000069460848DD
:1047F000FCF7E1F948208DF803000120ADF8000036
:1048000069460348FCF7D7F908BD000000080140DD
:10481000000C01402DE9F0418AB005460E4600200B
:1048200007900890099004900590069000900190E0
:104830000290039000245EE0002045F8240000214F
:1048400005F10C0040F82410002736E006F11000B6
:10485000FEF7A7FE06F11C00FEF7F4FE022C0CDAB0
:1048600006F1100252F8241007AA52F82400FBF7B0
:10487000C3FC07A941F8240011E006F1100151F82A
:1048800024004FF07E51FBF709FD804607A850F841
:1048900024104046FBF7B0FC07A941F8240006F1BC
:1048A0001C0252F8241004AA52F82400FBF7A4FCBE
:1048B00004A941F82400781CC7B2C82FC6DB3846CB
:1048C000FBF7F3FE804607A951F824004146FBF7A9
:1048D0001DFD45F824003846FBF7E7FE804604A995
:1048E00051F824004146FBF711FD05F10C0141F898
:1048F0002400601CC4B2032C9EDB002445E0002190
:1049000005F1180040F8241000272DE006F10800FA
:10491000FFF74EFD06F1080030F8140040F24C415C
:10492000884218DA06F1080030F81400B0F5617F0B
:1049300011DD06F1080131F81410A1F57A70FBF7CA
:10494000ABFE80465DF82410FBF756FC4DF82400C2
:10495000781CC7B208E00F48A8610146E9612962E6
:1049600069620AB0BDE8F081322FCFDB3846FBF731
:104970009CFE80465DF824004146FBF7C7FC05F12C
:10498000180141F82400601CC4B2042CB7DB00BF3E
:10499000E7E700000000C842C169026AC261016223
:1049A000026982F00041426982F000420261416185
:1049B000704710B5FEF74EFA00F0DCF9FEF7D5FDB2
:1049C000FEF76AFDFEF7BBFDFEF777FF00F0BEF8CD
:1049D00000F016F900F0E8F910BD00002DE9F047ED
:1049E00004460D4628263046FBF756FE8146F10662
:1049F000FBF75AFC80461449FBF788FC07462188E0
:104A0000A1F57A70FBF748FE80463946FBF74CFC6F
:104A100028606188C1F57A70FBF73EFE8046394612
:104A2000FBF742FC6860E188A1F57A70FBF734FE81
:104A300080463946FBF738FCA860A088FBF735FEB6
:104A4000E860BDE8F08700000000FA4400B5254B9F
:104A500021F0004287B09A4203DC00221346009204
:104A60002BE0214B9A4208D140B94FF00100FDF7ED
:104A700033FAFDF712FA07B000BD03DBFDF70AFABF
:104A800007B000BD02AAFCF7F7FE10F003014FF0DB
:104A900001000DD0012914D002291AD00DF1080C03
:104AA0009CE80F00FDF7ACF807B081F0004100BDB5
:104AB0000DF1080C00909CE80F00FDF775F907B0A8
:104AC00000BD0DF1080C9CE80F00FDF799F807B048
:104AD00000BD0DF1080C00909CE80F00FDF764F993
:104AE000E2E70000FB21E93F0000F07F1FB514A1C1
:104AF00003C9CDE9020102211348FCF7F0F80522B1
:104B000002A9302000F0A8F805226946102000F024
:104B100039F802210C48FCF7E4F8002406E01DF8FF
:104B20000400A52800D003E0601CC4B2052CF6DB0D
:104B300000BF052C02D1012004B010BD0020FBE70E
:104B4000A5A5A5A5A5000000000C014010B5FFF724
:104B500029FC10210548FCF7C4F8FFF7C7FF0446FD
:104B6000214603A0FCF764FE10BD000000080140D0
:104B7000436865636B696E67206E72662E2E2E2009
:104B800025640A002DE9F04105460E46174610211E
:104B90000C48FCF7A4F829460B4800F081F8804641
:104BA000002406E00021084800F07AF83055601C27
:104BB000C4B2BC42F6DB10210248FCF792F8404632
:104BC000BDE8F081000801400030014070B50446A6
:104BD0000D4610210848FCF782F82146074800F0EE
:104BE0005FF806462946054800F05AF810210248A9
:104BF000FCF777F8304670BD0008014000300140F6
:104C000010B502211248FCF76AF8052211492A2042
:104C100000F022F801212120FFF7D8FF01212220F6
:104C2000FFF7D4FF28212520FFF7D0FF08213120EE
:104C3000FFF7CCFF0F212620FFF7C8FF0F21202010
:104C4000FFF7C4FF02210248FCF74BF810BD00003B
:104C5000000C0140140000202DE9F04105460E46ED
:104C6000174610210C48FCF73AF829460B4800F08B
:104C700017F88046002405E0315D084800F010F880
:104C8000601CC4B2BC42F7DB10210348FCF729F8D2
:104C90004046BDE8F08100000008014000300140BE
:104CA00070B505460E46642407E0601EC4B224B900
:104CB000002000F021F8C0B270BD02212846FCF7A8
:104CC00083FA0028F1D031462846FCF789FA64249B
:104CD00007E0601EC4B224B9012000F00DF8C0B294
:104CE000EAE701212846FCF76FFA0028F1D02846B0
:104CF000FCF773FAC0B2DFE710B50446214602A004
:104D0000FCF796FD002010BD53504920B5C8B4FDF6
:104D1000B3ACCAB121206572726F72436F646520B3
:104D20003D2025640A0000002DE9F04106460F46AB
:104D3000FBF77DFE04000D4618BF0120284320F03C
:104D40000040C0F17F6000F1E040C00F0ED0301C89
:104D500018BF0120384320F00040C0F17F6000F10F
:104D6000E040C00F04BF0120FDF7B6F820462946F9
:104D7000BDE8F08108B501210820FCF79FF9032068
:104D80008DF8020010208DF803000001ADF800003E
:104D900069460448FBF70FFF4FF480710148FBF7A9
:104DA0009EFF08BD000C014010B5FFF797FCFFF710
:104DB0003BFC10BD10B5FEF72BF8FEF709F810BD4F
:104DC00010B5044616480068A0B121884FF0804015
:104DD000FCF747FC61884FF08040FCF744FCA18859
:104DE0004FF08040FCF741FCE1884FF08040FCF739
:104DF0003EFC13E000214FF08040FCF732FC002124
:104E00004FF08040FCF72FFC00214FF08040FCF772
:104E10002CFC00214FF08040FCF729FC10BD000065
:104E2000200000200000010002000100030001003A
:104E30000200010004000100020001000300010063
:104E40000200010005000100020001000300010052
:104E50000200010004000100020001000300010043
:104E60000200010006000100020001000300010031
:104E70000200010004000100020001000300010023
:104E80000200010005000100020001000300010012
:104E90000200010004000100020001000300010003
:104EA00002000100070001000200010003000100F0
:104EB00002000100040001000200010003000100E3
:104EC00002000100050001000200010003000100D2
:104ED00002000100040001000200010003000100C3
:104EE00002000100060001000200010003000100B1
:104EF00002000100040001000200010003000100A3
:104F00000200010005000100020001000300010091
:104F10000200010004000100020001000300010082
:104F200002000100000000004C5555555555A53FA5
:104F30007751C1166CC156BF9015CB19A001FA3E2E
:104F4000AD529C804F7E92BEC4B1B4BD9EEE213E58
:104F5000D43888BEE9FAA8BD00004054FB21F93FCF
:104F60003163621A61B4D03D0000601A61B4D03D73
:104F70007370032E8A19A33B0000002E8A19A33BED
:104F8000C14920259A837B39000000000000000001
:104F90006E83F9A22915444ED15727FCC0DD34F5A4
:104FA000999562DB4190433CAB6351FE61C5BBDE2A
:104FB0003A6E24B7E0D24D42EA2E49061C92D1093E
:104FC0001CEB1DFE3EA729B1F53582E88444BB2EBB
:104FD00026709CE9417E5FB439D69139F439538308
:104FE0008B5F849C3B28F9BDFF97F81F0F9805DE67
:104FF0008B112FEF1F6D0A5ACF7E366DB709CB2765
:10500000663F464F2DEA5F9EC7BA27757BF1E5EBF9
:10501000F739073DEA92528AB15FFB6B085D8D1F3D
:10502000A6F810111111813FD561C119A0012ABF45
:105030007DFEB157E31DC73EEB9C2B8AE6E55ABEC9
:105040007CD5CF5A3AD9E53D6850000800000020D1
:10505000C4000000B81E00082C510008C400002045
:1050600084250000C81E000800000000010203049F
:10507000010203040607080902040608344310105D
:105080000134431010010000000000000000000087
:1050900000000000000000000000803F0000000051
:1050A0000000000000000000000000000000000000
:1050B00000000000000000000000000000000000F0
:1050C00000000000000000000000000000000000E0
:1050D00000000000000000000000000000000000D0
:1050E00000000000000000000000000000000000C0
:1050F00000000000000000000000000000000000B0
:10510000000000000000000000000000000000009F
:105110000000803F000000000000000000000000D0
:0C51200000000000000000000000000083
:04000005080000ED02
:00000001FF
